:10000000C7FFA986DE9C0000E30100000003250075
:100010000127020E3C03000000000000400000C366
:100020004700000100030D00FFFC0000000000532A
:10003000000306090C0F1215181B1E21262B302059
:10004000000000000000000017050000000000E0B4
:1000500011060000000000C03509000000000090FB
:10006000000000000000009895000000000000A0C3
:1000700016010000000000A885010000000000B08B
:10008000F2010000000000B85D020000000000C0A6
:10009000C0020000000000C81B030000000000D0E8
:1000A00074030000000000D8C9030000000000E055
:1000B0001E040000000000E863040000000000F0DF
:1000C0009E040000000000F8D70400000000009526
:1000D0000000000000000001010101010101010117
:1000E0000101010101010101010101010101010100
:1000F00001010101010101010101010101010101F0
:1001000001010101010101010101010101010101DF
:1001100001010101010101010101010101010101CF
:101DD00001010101010101000000000000000000FC
:101DE00000000000000000000000000000000000F3
:101DF00000000000000000000000000000000000E3
:101E000000000000000000000000000000000000D2
:101E100000000000000000000000000000000000C2
:1023D00000000000000000020202020202020202EB
:1023E00002020202020202020202020202020202CD
:1023F00002020202020202020202020202020202BD
:1024000002020202020202020202020202020202AC
:10241000020202020202020202020202020202029C
:1040D00002020202020202000000000000000000D2
:1040E00000000000000000000000000000000000D0
:1040F00000000000000000000000000000000000C0
:1041000000000000000000000000000000000000AF
:10411000000000000000000000000000000000009F
:104CD00000000000000000010101010101010101CB
:104CE00001010101010101010101010101010101B4
:104CF00001010101010101010101010101010101A4
:104D00000101010101010101010101010101010193
:104D10000101010101010101010101010101010183
:1069D00001010101010101000000000000000000B0
:1069E00000000000000000000000000000000000A7
:1069F0000000000000000000000000000000000097
:106A00000000000000000000000000000000000086
:106A10000000000000000000000000000000000076
:106FD000000000000000000202020202020202029F
:106FE0000202020202020202020202020202020281
:106FF0000202020202020202020202020202020271
:107000000202020202020202020202020202020260
:107010000202020202020202020202020202020250
:108CD0000202020202020200000000000000000086
:108CE0000000000000000000000000000000000084
:108CF0000000000000000000000000000000000074
:108D00000000000000000000000000000000000063
:108D10000000000000000000000000000000000053
:1095D0000000000000000081000000000000000109
:1095E000010101010101010101010101010101016B
:1095F000010101010101010101010101010101015B
:10960000010101010101010101010101010101014A
:10961000010101010101010101010101010101013A
:10AED0000101010101010101010101010101010063
:10AEE0000000000000000000000000000000000062
:10AEF0000000000000000000000000000000000052
:10AF00000000000000000000000000000000000041
:10AF10000000000000000000000000000000000031
:10B4D000000000000000000000000000000000026A
:10B4E000020202020202020202020202020202023C
:10B4F000020202020202020202020202020202022C
:10B50000020202020202020202020202020202021B
:10B51000020202020202020202020202020202020B
:10CDD0000202020202020202020202020202020035
:10CDE0000000000000000000000000000000000043
:10CDF0000000000000000000000000000000000033
:10CE00000000000000000000000000000000000022
:10CE10000000000000000000000000000000000012
:10D7D0000000000000000000000000000000000148
:10D7E0000101010101010101010101010101010129
:10D7F0000101010101010101010101010101010119
:10D800000101010101010101010101010101010108
:10D8100001010101010101010101010101010101F8
:10F0D0000101010101010101010101010101010021
:10F0E0000000000000000000000000000000000020
:10F0F0000000000000000000000000000000000010
:10F1000000000000000000000000000000000000FF
:10F1100000000000000000000000000000000000EF
:10F6D0000000000000000000000000000000000228
:10F6E00002020202020202020202020202020202FA
:10F6F00002020202020202020202020202020202EA
:10F7000002020202020202020202020202020202D9
:10F7100002020202020202020202020202020202C9
:020000021000EC
:100FD00002020202020202020202020202020200F3
:100FE0000000000000000000000000000000000001
:100FF00000000000000000000000000000000000F1
:1010000000000000000000000000000000000000E0
:1010100000000000000000000000000000000000D0
:1016D0000000000000000000000000000000006F9B
:1016E00000000000000000010101010101010101F1
:1016F00001010101010101010101010101010101DA
:1017000001010101010101010101010101010101C9
:1017100001010101010101010101010101010101B9
:1017200001010101010101010101010101010101A9
:102CE00001010101010101000000000000000000DD
:102CF00000000000000000000000000000000000D4
:102D000000000000000000000000000000000000C3
:102D100000000000000000000000000000000000B3
:102D200000000000000000000000000000000000A3
:1030E00000000000000000020202020202020202CE
:1030F00002020202020202020202020202020202B0
:10310000020202020202020202020202020202029F
:10311000020202020202020202020202020202028F
:10312000020202020202020202020202020202027F
:1046E00002020202020202000000000000000000BC
:1046F00000000000000000000000000000000000BA
:1047000000000000000000000000000000000000A9
:104710000000000000000000000000000000000099
:104720000000000000000000000000000000000089
:104FE00000000000000000010101010101010101B8
:104FF00001010101010101010101010101010101A1
:105000000101010101010101010101010101010190
:105010000101010101010101010101010101010180
:105020000101010101010101010101010101010170
:1065E00001010101010101000000000000000000A4
:1065F000000000000000000000000000000000009B
:10660000000000000000000000000000000000008A
:10661000000000000000000000000000000000007A
:10662000000000000000000000000000000000006A
:1069E0000000000000000002020202020202020295
:1069F0000202020202020202020202020202020277
:106A00000202020202020202020202020202020266
:106A10000202020202020202020202020202020256
:106A20000202020202020202020202020202020246
:107FE0000202020202020200000000000000000083
:107FF0000000000000000000000000000000000081
:108000000000000000000000000000000000000070
:108010000000000000000000000000000000000060
:108020000000000000000000000000000000000050
:1085E000000000000000006D00000000000000011D
:1085F000010101010101010101010101010101016B
:10860000010101010101010101010101010101015A
:10861000010101010101010101010101010101014A
:10862000010101010101010101010101010101013A
:109BE0000101010101010101010101010101010066
:109BF0000000000000000000000000000000000065
:109C00000000000000000000000000000000000054
:109C10000000000000000000000000000000000044
:109C20000000000000000000000000000000000034
:109FE000000000000000000000000000000000026F
:109FF0000202020202020202020202020202020241
:10A000000202020202020202020202020202020230
:10A010000202020202020202020202020202020220
:10A020000202020202020202020202020202020210
:10B5E000020202020202020202020202020202003D
:10B5F000000000000000000000000000000000004B
:10B60000000000000000000000000000000000003A
:10B61000000000000000000000000000000000002A
:10B62000000000000000000000000000000000001A
:10BDE0000000000000000000000000000000000152
:10BDF0000101010101010101010101010101010133
:10BE00000101010101010101010101010101010122
:10BE10000101010101010101010101010101010112
:10BE20000101010101010101010101010101010102
:10D3E000010101010101010101010101010101002E
:10D3F000000000000000000000000000000000002D
:10D40000000000000000000000000000000000001C
:10D41000000000000000000000000000000000000C
:10D4200000000000000000000000000000000000FC
:10D7E0000000000000000000000000000000000237
:10D7F0000202020202020202020202020202020209
:10D8000002020202020202020202020202020202F8
:10D8100002020202020202020202020202020202E8
:10D8200002020202020202020202020202020202D8
:10EDE0000202020202020202020202020202020005
:10EDF0000000000000000000000000000000000013
:10EE00000000000000000000000000000000000002
:10EE100000000000000000000000000000000000F2
:10EE200000000000000000000000000000000000E2
:10F2E0000000000000000000000000000000006BB3
:10F2F0000000000000000001010101010101010105
:10F3000001010101010101010101010101010101ED
:10F3100001010101010101010101010101010101DD
:10F3200001010101010101010101010101010101CD
:10F3300001010101010101010101010101010101BD
:020000022000DC
:1006F00001010101010101000000000000000000F3
:1007000000000000000000000000000000000000E9
:1007100000000000000000000000000000000000D9
:1007200000000000000000000000000000000000C9
:1007300000000000000000000000000000000000B9
:100CF00000000000000000020202020202020202E2
:100D000002020202020202020202020202020202C3
:100D100002020202020202020202020202020202B3
:100D200002020202020202020202020202020202A3
:100D30000202020202020202020202020202020293
:1020F00002020202020202000000000000000000D2
:1021000000000000000000000000000000000000CF
:1021100000000000000000000000000000000000BF
:1021200000000000000000000000000000000000AF
:10213000000000000000000000000000000000009F
:1029F00000000000000000010101010101010101CE
:102A000001010101010101010101010101010101B6
:102A100001010101010101010101010101010101A6
:102A20000101010101010101010101010101010196
:102A30000101010101010101010101010101010186
:103DF00001010101010101000000000000000000BC
:103E000000000000000000000000000000000000B2
:103E100000000000000000000000000000000000A2
:103E20000000000000000000000000000000000092
:103E30000000000000000000000000000000000082
:1043F00000000000000000020202020202020202AB
:10440000020202020202020202020202020202028C
:10441000020202020202020202020202020202027C
:10442000020202020202020202020202020202026C
:10443000020202020202020202020202020202025C
:1057F000020202020202020000000000000000009B
:105800000000000000000000000000000000000098
:105810000000000000000000000000000000000088
:105820000000000000000000000000000000000078
:105830000000000000000000000000000000000068
:105DF000000000000000006300000000000000013F
:105E00000101010101010101010101010101010182
:105E10000101010101010101010101010101010172
:105E20000101010101010101010101010101010162
:105E30000101010101010101010101010101010152
:106FF0000101010101010101010101010101010082
:107000000000000000000000000000000000000080
:107010000000000000000000000000000000000070
:107020000000000000000000000000000000000060
:107030000000000000000000000000000000000050
:1075F0000000000000000000000000000000000289
:10760000020202020202020202020202020202025A
:10761000020202020202020202020202020202024A
:10762000020202020202020202020202020202023A
:10763000020202020202020202020202020202022A
:1087F000020202020202020202020202020202005B
:108800000000000000000000000000000000000068
:108810000000000000000000000000000000000058
:108820000000000000000000000000000000000048
:108830000000000000000000000000000000000038
:1090F000000000000000000000000000000000016F
:10910000010101010101010101010101010101014F
:10911000010101010101010101010101010101013F
:10912000010101010101010101010101010101012F
:10913000010101010101010101010101010101011F
:10A2F000010101010101010101010101010101004F
:10A30000000000000000000000000000000000004D
:10A31000000000000000000000000000000000003D
:10A32000000000000000000000000000000000002D
:10A33000000000000000000000000000000000001D
:10A8F0000000000000000000000000000000000256
:10A900000202020202020202020202020202020227
:10A910000202020202020202020202020202020217
:10A920000202020202020202020202020202020207
:10A9300002020202020202020202020202020202F7
:10BAF0000202020202020202020202020202020028
:10BB00000000000000000000000000000000000035
:10BB10000000000000000000000000000000000025
:10BB20000000000000000000000000000000000015
:10BB30000000000000000000000000000000000005
:10C0F0000000000000000000000000000000005BE5
:10C100000000000000000001010101010101010126
:10C11000010101010101010101010101010101010F
:10C1200001010101010101010101010101010101FF
:10C1300001010101010101010101010101010101EF
:10C1400001010101010101010101010101010101DF
:10D000000101010101010100000000000000000019
:10D010000000000000000000000000000000000010
:10D020000000000000000000000000000000000000
:10D0300000000000000000000000000000000000F0
:10D0400000000000000000000000000000000000E0
:10D700000000000000000002020202020202020207
:10D7100002020202020202020202020202020202E9
:10D7200002020202020202020202020202020202D9
:10D7300002020202020202020202020202020202C9
:10D7400002020202020202020202020202020202B9
:10E6000002020202020202000000000000000000FC
:10E6100000000000000000000000000000000000FA
:10E6200000000000000000000000000000000000EA
:10E6300000000000000000000000000000000000DA
:10E6400000000000000000000000000000000000CA
:10F0000000000000000000010101010101010101F7
:10F0100001010101010101010101010101010101E0
:10F0200001010101010101010101010101010101D0
:10F0300001010101010101010101010101010101C0
:10F0400001010101010101010101010101010101B0
:10FF000001010101010101000000000000000000EA
:10FF100000000000000000000000000000000000E1
:10FF200000000000000000000000000000000000D1
:10FF300000000000000000000000000000000000C1
:10FF400000000000000000000000000000000000B1
:020000023000CC
:1006000000000000000000020202020202020202D8
:1006100002020202020202020202020202020202BA
:1006200002020202020202020202020202020202AA
:10063000020202020202020202020202020202029A
:10064000020202020202020202020202020202028A
:1015000002020202020202000000000000000000CD
:1015100000000000000000000000000000000000CB
:1015200000000000000000000000000000000000BB
:1015300000000000000000000000000000000000AB
:10154000000000000000000000000000000000009B
:101C0000000000000000005900000000000000017A
:101C100001010101010101010101010101010101B4
:101C200001010101010101010101010101010101A4
:101C30000101010101010101010101010101010194
:101C40000101010101010101010101010101010184
:102B000001010101010101010101010101010100B6
:102B100000000000000000000000000000000000B5
:102B200000000000000000000000000000000000A5
:102B30000000000000000000000000000000000095
:102B40000000000000000000000000000000000085
:1032000000000000000000000000000000000002BC
:10321000020202020202020202020202020202028E
:10322000020202020202020202020202020202027E
:10323000020202020202020202020202020202026E
:10324000020202020202020202020202020202025E
:104100000202020202020202020202020202020091
:10411000000000000000000000000000000000009F
:10412000000000000000000000000000000000008F
:10413000000000000000000000000000000000007F
:10414000000000000000000000000000000000006F
:104A000000000000000000000000000000000001A5
:104A10000101010101010101010101010101010186
:104A20000101010101010101010101010101010176
:104A30000101010101010101010101010101010166
:104A40000101010101010101010101010101010156
:105900000101010101010101010101010101010088
:105910000000000000000000000000000000000087
:105920000000000000000000000000000000000077
:105930000000000000000000000000000000000067
:105940000000000000000000000000000000000057
:10600000000000000000000000000000000000028E
:106010000202020202020202020202020202020260
:106020000202020202020202020202020202020250
:106030000202020202020202020202020202020240
:106040000202020202020202020202020202020230
:106F00000202020202020202020202020202020063
:106F10000000000000000000000000000000000071
:106F20000000000000000000000000000000000061
:106F30000000000000000000000000000000000051
:106F40000000000000000000000000000000000041
:107500000000000000000000000000000000005526
:107510000000000000000001010101010101010162
:10752000010101010101010101010101010101014B
:10753000010101010101010101010101010101013B
:10754000010101010101010101010101010101012B
:10755000010101010101010101010101010101011B
:108410000101010101010100000000000000000055
:10842000000000000000000000000000000000004C
:10843000000000000000000000000000000000003C
:10844000000000000000000000000000000000002C
:10845000000000000000000000000000000000001C
:108B10000000000000000002020202020202020243
:108B20000202020202020202020202020202020225
:108B30000202020202020202020202020202020215
:108B40000202020202020202020202020202020205
:108B500002020202020202020202020202020202F5
:109A10000202020202020200000000000000000038
:109A20000000000000000000000000000000000036
:109A30000000000000000000000000000000000026
:109A40000000000000000000000000000000000016
:109A50000000000000000000000000000000000006
:10A110000000000000000001010101010101010136
:10A12000010101010101010101010101010101011F
:10A13000010101010101010101010101010101010F
:10A1400001010101010101010101010101010101FF
:10A1500001010101010101010101010101010101EF
:10B010000101010101010100000000000000000029
:10B020000000000000000000000000000000000020
:10B030000000000000000000000000000000000010
:10B040000000000000000000000000000000000000
:10B0500000000000000000000000000000000000F0
:10B710000000000000000002020202020202020217
:10B7200002020202020202020202020202020202F9
:10B7300002020202020202020202020202020202E9
:10B7400002020202020202020202020202020202D9
:10B7500002020202020202020202020202020202C9
:10C61000020202020202020000000000000000000C
:10C62000000000000000000000000000000000000A
:10C6300000000000000000000000000000000000FA
:10C6400000000000000000000000000000000000EA
:10C6500000000000000000000000000000000000DA
:10CA100000000000000000550000000000000001C0
:10CA200001010101010101010101010101010101F6
:10CA300001010101010101010101010101010101E6
:10CA400001010101010101010101010101010101D6
:10CA500001010101010101010101010101010101C6
:10D8100001010101010101010101010101010100F9
:10D8200000000000000000000000000000000000F8
:10D8300000000000000000000000000000000000E8
:10D8400000000000000000000000000000000000D8
:10D8500000000000000000000000000000000000C8
:10DF100000000000000000000000000000000002FF
:10DF200002020202020202020202020202020202D1
:10DF300002020202020202020202020202020202C1
:10DF400002020202020202020202020202020202B1
:10DF500002020202020202020202020202020202A1
:10ED100002020202020202020202020202020200D5
:10ED200000000000000000000000000000000000E3
:10ED300000000000000000000000000000000000D3
:10ED400000000000000000000000000000000000C3
:10ED500000000000000000000000000000000000B3
:10F6100000000000000000000000000000000001E9
:10F6200001010101010101010101010101010101CA
:10F6300001010101010101010101010101010101BA
:10F6400001010101010101010101010101010101AA
:10F65000010101010101010101010101010101019A
:020000024000BC
:1004100001010101010101010101010101010100CD
:1004200000000000000000000000000000000000CC
:1004300000000000000000000000000000000000BC
:1004400000000000000000000000000000000000AC
:10045000000000000000000000000000000000009C
:100B100000000000000000000000000000000002D3
:100B200002020202020202020202020202020202A5
:100B30000202020202020202020202020202020295
:100B40000202020202020202020202020202020285
:100B50000202020202020202020202020202020275
:1019100002020202020202020202020202020200A9
:1019200000000000000000000000000000000000B7
:1019300000000000000000000000000000000000A7
:101940000000000000000000000000000000000097
:101950000000000000000000000000000000000087
:101F1000000000000000000000000000000000457C
:101F200000000000000000010101010101010101A8
:101F30000101010101010101010101010101010191
:101F40000101010101010101010101010101010181
:101F50000101010101010101010101010101010171
:101F60000101010101010101010101010101010161
:1029200001010101010101000000000000000000A0
:102930000000000000000000000000000000000097
:102940000000000000000000000000000000000087
:102950000000000000000000000000000000000077
:102960000000000000000000000000000000000067
:10302000000000000000000202020202020202028E
:103030000202020202020202020202020202020270
:103040000202020202020202020202020202020260
:103050000202020202020202020202020202020250
:103060000202020202020202020202020202020240
:103A20000202020202020200000000000000000088
:103A30000000000000000000000000000000000086
:103A40000000000000000000000000000000000076
:103A50000000000000000000000000000000000066
:103A60000000000000000000000000000000000056
:104320000000000000000001010101010101010184
:10433000010101010101010101010101010101016D
:10434000010101010101010101010101010101015D
:10435000010101010101010101010101010101014D
:10436000010101010101010101010101010101013D
:104D2000010101010101010000000000000000007C
:104D30000000000000000000000000000000000073
:104D40000000000000000000000000000000000063
:104D50000000000000000000000000000000000053
:104D60000000000000000000000000000000000043
:10542000000000000000000202020202020202026A
:10543000020202020202020202020202020202024C
:10544000020202020202020202020202020202023C
:10545000020202020202020202020202020202022C
:10546000020202020202020202020202020202021C
:105E20000202020202020200000000000000000064
:105E30000000000000000000000000000000000062
:105E40000000000000000000000000000000000052
:105E50000000000000000000000000000000000042
:105E60000000000000000000000000000000000032
:10642000000000000000003B000000000000000130
:10643000010101010101010101010101010101014C
:10644000010101010101010101010101010101013C
:10645000010101010101010101010101010101012C
:10646000010101010101010101010101010101011C
:106C20000101010101010101010101010101010055
:106C30000000000000000000000000000000000054
:106C40000000000000000000000000000000000044
:106C50000000000000000000000000000000000034
:106C60000000000000000000000000000000000024
:10722000000000000000000000000000000000025C
:10723000020202020202020202020202020202022E
:10724000020202020202020202020202020202021E
:10725000020202020202020202020202020202020E
:1072600002020202020202020202020202020202FE
:107A20000202020202020202020202020202020038
:107A30000000000000000000000000000000000046
:107A40000000000000000000000000000000000036
:107A50000000000000000000000000000000000026
:107A60000000000000000000000000000000000016
:10832000000000000000000000000000000000014C
:10833000010101010101010101010101010101012D
:10834000010101010101010101010101010101011D
:10835000010101010101010101010101010101010D
:1083600001010101010101010101010101010101FD
:108B20000101010101010101010101010101010036
:108B30000000000000000000000000000000000035
:108B40000000000000000000000000000000000025
:108B50000000000000000000000000000000000015
:108B60000000000000000000000000000000000005
:10912000000000000000000000000000000000023D
:10913000020202020202020202020202020202020F
:1091400002020202020202020202020202020202FF
:1091500002020202020202020202020202020202EF
:1091600002020202020202020202020202020202DF
:109920000202020202020202020202020202020019
:109930000000000000000000000000000000000027
:109940000000000000000000000000000000000017
:109950000000000000000000000000000000000007
:1099600000000000000000000000000000000000F7
:109F200000000000000000000000000000000039F8
:109F30000000000000000001010101010101010118
:109F40000101010101010101010101010101010101
:109F500001010101010101010101010101010101F1
:109F600001010101010101010101010101010101E1
:109F700001010101010101010101010101010101D1
:10A730000101010101010100000000000000000012
:10A740000000000000000000000000000000000009
:10A7500000000000000000000000000000000000F9
:10A7600000000000000000000000000000000000E9
:10A7700000000000000000000000000000000000D9
:10AD30000000000000000002020202020202020201
:10AD400002020202020202020202020202020202E3
:10AD500002020202020202020202020202020202D3
:10AD600002020202020202020202020202020202C3
:10AD700002020202020202020202020202020202B3
:10B5300002020202020202000000000000000000FD
:10B5400000000000000000000000000000000000FB
:10B5500000000000000000000000000000000000EB
:10B5600000000000000000000000000000000000DB
:10B5700000000000000000000000000000000000CB
:10BD300000000000000000010101010101010101FA
:10BD400001010101010101010101010101010101E3
:10BD500001010101010101010101010101010101D3
:10BD600001010101010101010101010101010101C3
:10BD700001010101010101010101010101010101B3
:10C5300001010101010101000000000000000000F4
:10C5400000000000000000000000000000000000EB
:10C5500000000000000000000000000000000000DB
:10C5600000000000000000000000000000000000CB
:10C5700000000000000000000000000000000000BB
:10CB300000000000000000020202020202020202E3
:10CB400002020202020202020202020202020202C5
:10CB500002020202020202020202020202020202B5
:10CB600002020202020202020202020202020202A5
:10CB70000202020202020202020202020202020295
:10D3300002020202020202000000000000000000DF
:10D3400000000000000000000000000000000000DD
:10D3500000000000000000000000000000000000CD
:10D3600000000000000000000000000000000000BD
:10D3700000000000000000000000000000000000AD
:10D83000000000000000003F0000000000000001A8
:10D8400001010101010101010101010101010101C8
:10D8500001010101010101010101010101010101B8
:10D8600001010101010101010101010101010101A8
:10D870000101010101010101010101010101010198
:10E0300001010101010101010101010101010100D1
:10E0400000000000000000000000000000000000D0
:10E0500000000000000000000000000000000000C0
:10E0600000000000000000000000000000000000B0
:10E0700000000000000000000000000000000000A0
:10E7300000000000000000000000000000000002D7
:10E7400002020202020202020202020202020202A9
:10E750000202020202020202020202020202020299
:10E760000202020202020202020202020202020289
:10E770000202020202020202020202020202020279
:10EF300002020202020202020202020202020200B3
:10EF400000000000000000000000000000000000C1
:10EF500000000000000000000000000000000000B1
:10EF600000000000000000000000000000000000A1
:10EF70000000000000000000000000000000000091
:10F9300000000000000000000000000000000001C6
:10F9400001010101010101010101010101010101A7
:10F950000101010101010101010101010101010197
:10F960000101010101010101010101010101010187
:10F970000101010101010101010101010101010177
:020000025000AC
:1001300001010101010101010101010101010100B0
:1001400000000000000000000000000000000000AF
:10015000000000000000000000000000000000009F
:10016000000000000000000000000000000000008F
:10017000000000000000000000000000000000007F
:1008300000000000000000000000000000000002B6
:100840000202020202020202020202020202020288
:100850000202020202020202020202020202020278
:100860000202020202020202020202020202020268
:100870000202020202020202020202020202020258
:101030000202020202020202020202020202020092
:1010400000000000000000000000000000000000A0
:101050000000000000000000000000000000000090
:101060000000000000000000000000000000000080
:101070000000000000000000000000000000000070
:101730000000000000000000000000000000007039
:10174000170500000000007835050000000000804B
:101750004F050000000000886605000000000090B2
:101760007D0500000000009892050000000000A028
:10177000A5050000000000A8B6050000000000B0AC
:10178000C6050000000000B8D6050000000000C03B
:10179000E5050000000000C8F0050000000000D0D2
:1017A000FF050000000000D8080600000000001E31
:1017B0000000000000000000000000000000000029
:1017C0000000000000000100000000000000000018
:1017D0000000000000000000000000000000000009
:1017E00000000000000000000000000000000000F9
:1017F00000000000000000000000000000000000E9
:1018000000000000000000000000000000000000D8
:1018100000000000000000000000000000000000C8
:1018200000000000000000000000000000000000B8
:1018300000000000000000000000000000000000A8
:101840000000000000000000000000000000000098
:101850000000000000000000000000000000000088
:101860000000000000000000000000000000000078
:101870000000000000000000000000000000000068
:101880000000000000000000000000000000000058
:101890000000000000000000000000000000000048
:1018A0000000000000000002020000000000000034
:1018B0000000000000000000000000000000000028
:1018C0000000000000000100000000000000000017
:1018D0000000000000000000000000000000000008
:1018E00000000000000000000000000000000000F8
:1018F00000000000000000000000000000000000E8
:1019000000000000000000000000000000000000D7
:1019100000000000000000000000000000000000C7
:1019200000000000000000000000000000000000B7
:1019300000000000000000000000000000000000A7
:101940000000000000000000000000000000000097
:101950000000000000000000000000000000000087
:101960000000000000000000000000000000000077
:101970000000000000000000000000000000000067
:101980000000000000000000000000000000000057
:101990000000000000000000000000000000000047
:1019A0000000000000000002020001000000000032
:1019B0000000000000000000000000000000000027
:1019C0000000000000010100000000000000000015
:1019D0000000000000000000000000000000000007
:1019E00000000000000000000000000000000000F7
:1019F00000000000000000000000000000000000E7
:101A000000000000000000000000000000000000D6
:101A100000000000000000000000000000000000C6
:101A200000000000000000000000000000000000B6
:101A300000000000000000000000000000000000A6
:101A40000000000000000000000000000000000096
:101A50000000000000000000000000000000000086
:101A60000000000000000000000000000000000076
:101A70000000000000000000000000000000000066
:101A80000000000000000000000000000000000056
:101A90000000000000000000000000000000000046
:101AA000000000000000000202020200010100012B
:101AB0000000000000000000000000000000000026
:101AC0000000000000010100000000000000000014
:101AD0000000000000000000000000000000000006
:101AE00000000000000000000000000000000000F6
:101AF00000000000000000000000000000000000E6
:101B000000000000000000000000000000000000D5
:101B100000000000000000000000000000000000C5
:101B200000000000000000000000000000000000B5
:101B300000000000000000000000000000000000A5
:101B40000000000000000000000000000000000095
:101B50000000000000000000000000000000000085
:101B60000000000000000000000000000000000075
:101B70000000000000000000000000000000000065
:101B80000000000000000000000000000000000055
:101B90000000000000000000000000000000000045
:101BA0000000000000000002020202010101000129
:101BB0000000000000000000000000000000000025
:101BC0000000000000010100000000000000000013
:101BD0000000000000000000000000000000000005
:101BE00000000000000000000000000000000000F5
:101BF00000000000000000000000000000000000E5
:101C000000000000000000000000000000000000D4
:101C100000000000000000000000000000000000C4
:101C200000000000000000000000000000000000B4
:101C300000000000000000000000000000000000A4
:101C40000000000000000000000000000000000094
:101C50000000000000000000000000000000000084
:101C60000000000000000000000000000000000074
:101C70000000000000000000000000000000000064
:101C80000000000000000000000000000000000054
:101C90000000000000000000000000000000000044
:101CA0000000000000000002020202020101000127
:101CB0000001000000000000000000000000000023
:101CC0000000000000010100000000000000000012
:101CD0000000000000000000000000000000000004
:101CE00000000000000000000000000000000000F4
:101CF00000000000000000000000000000000000E4
:101D000000000000000000000000000000000000D3
:101D100000000000000000000000000000000000C3
:101D200000000000000000000000000000000000B3
:101D300000000000000000000000000000000000A3
:101D40000000000000000000000000000000000093
:101D50000000000000000000000000000000000083
:101D60000000000000000000000000000000000073
:101D70000000000000000000000000000000000063
:101D80000000000000000000000000000000000053
:101D90000000000000000000000000000000000043
:101DA0000000000000000002020202020201010124
:101DB0000101000000000000000000000000000021
:101DC0000000000001010100000000000000000010
:101DD0000000000000000000000000000000000003
:101DE00000000000000000000000000000000000F3
:101DF00000000000000000000000000000000000E3
:101E000000000000000000000000000000000000D2
:101E100000000000000000000000000000000000C2
:101E200000000000000000000000000000000000B2
:101E300000000000000000000000000000000000A2
:101E40000000000000000000000000000000000092
:101E50000000000000000000000000000000000082
:101E60000000000000000000000000000000000072
:101E70000000000000000000000000000000000062
:101E80000000000000000000000000000000000052
:101E90000000000000000000000000000000000042
:101EA0000000000000000002020202020202010122
:101EB0000101000000000000000000000000000020
:101EC000000000000101010000000000000000000F
:101ED0000000000000000000000000000000000002
:101EE00000000000000000000000000000000000F2
:101EF00000000000000000000000000000000000E2
:101F000000000000000000000000000000000000D1
:101F100000000000000000000000000000000000C1
:101F200000000000000000000000000000000000B1
:101F300000000000000000000000000000000000A1
:101F40000000000000000000000000000000000091
:101F50000000000000000000000000000000000081
:101F60000000000000000000000000000000000071
:101F70000000000000000000000000000000000061
:101F80000000000000000000000000000000000051
:101F90000000000000000000000000000000000041
:101FA0000000000000000002020202020202010121
:101FB000010101000000000000000000000000001E
:101FC000000000010101010000000000000000000D
:101FD0000000000000000000000000000000000001
:101FE00000000000000000000000000000000000F1
:101FF00000000000000000000000000000000000E1
:1020000000000000000000000000000000000000D0
:1020100000000000000000000000000000000000C0
:1020200000000000000000000000000000000000B0
:1020300000000000000000000000000000000000A0
:102040000000000000000000000000000000000090
:102050000000000000000000000000000000000080
:102060000000000000000000000000000000000070
:102070000000000000000000000000000000000060
:102080000000000000000000000000000000000050
:102090000000000000000000000000000000000040
:1020A000000000000000000202020202020202021E
:1020B000010101000000000000000000000000001D
:1020C000000000010101010000000000000000000C
:1020D0000000000000000000000000000000000000
:1020E00000000000000000000000000000000000F0
:1020F00000000000000000000000000000000000E0
:1021000000000000000000000000000000000000CF
:1021100000000000000000000000000000000000BF
:1021200000000000000000000000000000000000AF
:10213000000000000000000000000000000000009F
:10214000000000000000000000000000000000008F
:10215000000000000000000000000000000000007F
:10216000000000000000000000000000000000006F
:10217000000000000000000000000000000000005F
:10218000000000000000000000000000000000004F
:10219000000000000000000000000000000000003F
:1021A000000000000000000202020202020202021D
:1021B000010101000000000000000000000000001C
:1021C000000001010101010000000000000000000A
:1021D00000000000000000000000000000000000FF
:1021E00000000000000000000000000000000000EF
:1021F00000000000000000000000000000000000DF
:1022000000000000000000000000000000000000CE
:1022100000000000000000000000000000000000BE
:1022200000000000000000000000000000000000AE
:10223000000000000000000000000000000000009E
:10224000000000000000000000000000000000008E
:10225000000000000000000000000000000000007E
:10226000000000000000000000000000000000006E
:10227000000000000000000000000000000000005E
:10228000000000000000000000000000000000004E
:10229000000000000000000000000000000000003E
:1022A000000000000000000202020202020202021C
:1022B000020101000000000000000000000000001A
:1022C0000001010101010100000000000000000008
:1022D00000000000000000000000000000000000FE
:1022E00000000000000000000000000000000000EE
:1022F00000000000000000000000000000000000DE
:1023000000000000000000000000000000000000CD
:1023100000000000000000000000000000000000BD
:1023200000000000000000000000000000000000AD
:10233000000000000000000000000000000000009D
:10234000000000000000000000000000000000008D
:10235000000000000000000000000000000000007D
:10236000000000000000000000000000000000006D
:10237000000000000000000000000000000000005D
:10238000000000000000000000000000000000004D
:10239000000000000000000000000000000000003D
:1023A000000000000000000202020202020202021B
:1023B0000202010100000000000000000000000017
:1023C0000001010101010100000000000000000007
:1023D00000000000000000000000000000000000FD
:1023E00000000000000000000000000000000000ED
:1023F00000000000000000000000000000000000DD
:1024000000000000000000000000000000000000CC
:1024100000000000000000000000000000000000BC
:1024200000000000000000000000000000000000AC
:10243000000000000000000000000000000000009C
:10244000000000000000000000000000000000008C
:10245000000000000000000000000000000000007C
:10246000000000000000000000000000000000006C
:10247000000000000000000000000000000000005C
:10248000000000000000000000000000000000004C
:10249000000000000000000000000000000000003C
:1024A000000000000000000202020202020202021A
:1024B0000202010100000000000000000000000016
:1024C0000001010101010100000000000000000006
:1024D00000000000000000000000000000000000FC
:1024E00000000000000000000000000000000000EC
:1024F00000000000000000000000000000000000DC
:1025000000000000000000000000000000000000CB
:1025100000000000000000000000000000000000BB
:1025200000000000000000000000000000000000AB
:10253000000000000000000000000000000000009B
:10254000000000000000000000000000000000008B
:10255000000000000000000000000000000000007B
:10256000000000000000000000000000000000006B
:10257000000000000000000000000000000000005B
:10258000000000000000000000000000000000004B
:10259000000000000000000000000000000000003B
:1025A0000000000000000002020202020202020219
:1025B0000202020101010000000000000000000012
:1025C0000101010101010100000000000000000004
:1025D00000000000000000000000000000000000FB
:1025E00000000000000000000000000000000000EB
:1025F00000000000000000000000000000000000DB
:1026000000000000000000000000000000000000CA
:1026100000000000000000000000000000000000BA
:1026200000000000000000000000000000000000AA
:10263000000000000000000000000000000000009A
:10264000000000000000000000000000000000008A
:10265000000000000000000000000000000000007A
:10266000000000000000000000000000000000006A
:10267000000000000000000000000000000000005A
:10268000000000000000000000000000000000004A
:10269000000000000000000000000000000000003A
:1026A0000000000000000002020202020202020218
:1026B0000202020101010000000000000000000110
:1026C0000101010101010100000000000000000003
:1026D00000000000000000000000000000000000FA
:1026E00000000000000000000000000000000000EA
:1026F00000000000000000000000000000000000DA
:1027000000000000000000000000000000000000C9
:1027100000000000000000000000000000000000B9
:1027200000000000000000000000000000000000A9
:102730000000000000000000000000000000000099
:102740000000000000000000000000000000000089
:102750000000000000000000000000000000000079
:102760000000000000000000000000000000000069
:102770000000000000000000000000000000000059
:102780000000000000000000000000000000000049
:102790000000000000000000000000000000000039
:1027A0000000000000000002020202020202020217
:1027B000020202010101000000000000000000010F
:1027C0000101010101010100000000000000000002
:1027D00000000000000000000000000000000000F9
:1027E00000000000000000000000000000000000E9
:1027F00000000000000000000000000000000000D9
:1028000000000000000000000000000000000000C8
:1028100000000000000000000000000000000000B8
:1028200000000000000000000000000000000000A8
:102830000000000000000000000000000000000098
:102840000000000000000000000000000000000088
:102850000000000000000000000000000000000078
:102860000000000000000000000000000000000068
:102870000000000000000000000000000000000058
:102880000000000000000000000000000000000048
:102890000000000000000000000000000000000038
:1028A0000000000000000002020202020202020216
:1028B000020202020101000000000000000000010D
:1028C0000101010101010100000000000000000001
:1028D00000000000000000000000000000000000F8
:1028E00000000000000000000000000000000000E8
:1028F00000000000000000000000000000000000D8
:1029000000000000000000000000000000000000C7
:1029100000000000000000000000000000000000B7
:1029200000000000000000000000000000000000A7
:102930000000000000000000000000000000000097
:102940000000000000000000000000000000000087
:102950000000000000000000000000000000000077
:102960000000000000000000000000000000000067
:102970000000000000000000000000000000000057
:102980000000000000000000000000000000000047
:102990000000000000000000000000000000000037
:1029A0000000000000000002020202020202020215
:1029B000020202020101000000000000000001010B
:1029C0000101010101010100000000000000000000
:1029D00000000000000000000000000000000000F7
:1029E00000000000000000000000000000000000E7
:1029F00000000000000000000000000000000000D7
:102A000000000000000000000000000000000000C6
:102A100000000000000000000000000000000000B6
:102A200000000000000000000000000000000000A6
:102A30000000000000000000000000000000000096
:102A40000000000000000000000000000000000086
:102A50000000000000000000000000000000000076
:102A60000000000000000000000000000000000066
:102A70000000000000000000000000000000000056
:102A80000000000000000000000000000000000046
:102A90000000000000000000000000000000000036
:102AA0000000000000000002020202020202020214
:102AB0000202020202010000000000000001010108
:102AC00001010101010101000000000000000000FF
:102AD00000000000000000000000000000000000F6
:102AE00000000000000000000000000000000000E6
:102AF00000000000000000000000000000000000D6
:102B000000000000000000000000000000000000C5
:102B100000000000000000000000000000000000B5
:102B200000000000000000000000000000000000A5
:102B30000000000000000000000000000000000095
:102B40000000000000000000000000000000000085
:102B50000000000000000000000000000000000075
:102B60000000000000000000000000000000000065
:102B70000000000000000000000000000000000055
:102B80000000000000000000000000000000000045
:102B90000000000000000000000000000000000035
:102BA0000000000000000002020202020202020213
:102BB0000202020202010000000000000001010107
:102BC00001010101010101000000000000000000FE
:102BD00000000000000000000000000000000000F5
:102BE00000000000000000000000000000000000E5
:102BF00000000000000000000000000000000000D5
:102C000000000000000000000000000000000000C4
:102C100000000000000000000000000000000000B4
:102C200000000000000000000000000000000000A4
:102C30000000000000000000000000000000000094
:102C40000000000000000000000000000000000084
:102C50000000000000000000000000000000000074
:102C60000000000000000000000000000000000064
:102C70000000000000000000000000000000000054
:102C80000000000000000000000000000000000044
:102C90000000000000000000000000000000000034
:102CA0000000000000000002020202020202020212
:102CB0000202020202020000000000000101010104
:102CC00001010101010101000000000000000000FD
:102CD00000000000000000000000000000000000F4
:102CE00000000000000000000000000000000000E4
:102CF00000000000000000000000000000000000D4
:102D000000000000000000000000000000000000C3
:102D100000000000000000000000000000000000B3
:102D200000000000000000000000000000000000A3
:102D30000000000000000000000000000000000093
:102D40000000000000000000000000000000000083
:102D50000000000000000000000000000000000073
:102D60000000000000000000000000000000000063
:102D70000000000000000000000000000000000053
:102D80000000000000000000000000000000000043
:102D90000000000000000000000000000000000033
:102DA0000000000000000002020202020202020211
:102DB0000202020202020000000000000101010103
:102DC00001010101010101000000000000000000FC
:102DD00000000000000000000000000000000000F3
:102DE00000000000000000000000000000000000E3
:102DF00000000000000000000000000000000000D3
:102E000000000000000000000000000000000000C2
:102E100000000000000000000000000000000000B2
:102E200000000000000000000000000000000000A2
:102E30000000000000000000000000000000000092
:102E40000000000000000000000000000000000082
:102E50000000000000000000000000000000000072
:102E60000000000000000000000000000000000062
:102E70000000000000000000000000000000000052
:102E80000000000000000000000000000000000042
:102E90000000000000000000000000000000000032
:102EA0000000000000000002020202020202020210
:102EB0000202020202020000000000000101010102
:102EC00001010101010101000000000000000000FB
:102ED00000000000000000000000000000000000F2
:102EE00000000000000000000000000000000000E2
:102EF00000000000000000000000000000000000D2
:102F000000000000000000000000000000000000C1
:102F100000000000000000000000000000000000B1
:102F200000000000000000000000000000000000A1
:102F30000000000000000000000000000000000091
:102F40000000000000000000000000000000000081
:102F50000000000000000000000000000000000071
:102F60000000000000000000000000000000000061
:102F70000000000000000000000000000000000051
:102F80000000000000000000000000000000000041
:102F90000000000000000000000000000000000031
:102FA000000000000000000202020202020202020F
:102FB0000202020202020000000000010101010100
:102FC00001010101010101000000000000000000FA
:102FD00000000000000000000000000000000000F1
:102FE00000000000000000000000000000000000E1
:102FF00000000000000000000000000000000000D1
:1030000000000000000000000000000000000000C0
:1030100000000000000000000000000000000000B0
:1030200000000000000000000000000000000000A0
:103030000000000000000000000000000000000090
:103040000000000000000000000000000000000080
:103050000000000000000000000000000000000070
:103060000000000000000000000000000000000060
:103070000000000000000000000000000000000050
:103080000000000000000000000000000000000040
:103090000000000000000000000000000000000030
:1030A000000000000000000202020202020202020E
:1030B00002020202020200000000000101010101FF
:1030C00001010101010101000000000000000000F9
:1030D00000000000000000000000000000000000F0
:1030E00000000000000000000000000000000000E0
:1030F00000000000000000000000000000000000D0
:1031000000000000000000000000000000000000BF
:1031100000000000000000000000000000000000AF
:10312000000000000000000000000000000000009F
:10313000000000000000000000000000000000008F
:10314000000000000000000000000000000000007F
:10315000000000000000000000000000000000006F
:10316000000000000000000000000000000000005F
:10317000000000000000000000000000000000004F
:10318000000000000000000000000000000000003F
:10319000000000000000000000000000000000002F
:1031A000000000000000000202020202020202020D
:1031B00002020202020200000000010101010101FD
:1031C00001010101010101000000000000000000F8
:1031D00000000000000000000000000000000000EF
:1031E00000000000000000000000000000000000DF
:1031F00000000000000000000000000000000000CF
:1032000000000000000000000000000000000000BE
:1032100000000000000000000000000000000000AE
:10322000000000000000000000000000000000009E
:10323000000000000000000000000000000000008E
:10324000000000000000000000000000000000007E
:10325000000000000000000000000000000000006E
:10326000000000000000000000000000000000005E
:10327000000000000000000000000000000000004E
:10328000000000000000000000000000000000003E
:10329000000000000000000000000000000000002E
:1032A000000000000000000202020202020202020C
:1032B00002020202020200000001010101010101FB
:1032C00001010101010101000000000000000000F7
:1032D00000000000000000000000000000000000EE
:1032E00000000000000000000000000000000000DE
:1032F00000000000000000000000000000000000CE
:1033000000000000000000000000000000000000BD
:1033100000000000000000000000000000000000AD
:10332000000000000000000000000000000000009D
:10333000000000000000000000000000000000008D
:10334000000000000000000000000000000000007D
:10335000000000000000000000000000000000006D
:10336000000000000000000000000000000000005D
:10337000000000000000000000000000000000004D
:10338000000000000000000000000000000000003D
:10339000000000000000000000000000000000002D
:1033A000000000000000000202020202020202020B
:1033B00002020202020200000001010101010101FA
:1033C00001010101010101000000000000000000F6
:1033D00000000000000000000000000000000000ED
:1033E00000000000000000000000000000000000DD
:1033F00000000000000000000000000000000000CD
:1034000000000000000000000000000000000000BC
:1034100000000000000000000000000000000000AC
:10342000000000000000000000000000000000009C
:10343000000000000000000000000000000000008C
:10344000000000000000000000000000000000007C
:10345000000000000000000000000000000000006C
:10346000000000000000000000000000000000005C
:10347000000000000000000000000000000000004C
:10348000000000000000000000000000000000003C
:10349000000000000000000000000000000000002C
:1034A000000000000000000202020202020202020A
:1034B0000202020202020000000000000000000000
:1034C00000000000000000000000000000000000FC
:1034D00000000000000000000000000000000000EC
:1034E00000000000000000000000000000000000DC
:1034F00000000000000000000000000000000000CC
:1035000000000000000000000000000000000000BB
:1035100000000000000000000000000000000000AB
:10352000000000000000000000000000000000009B
:10353000000000000000000000000000000000008B
:10354000000000000000000000000000000000007B
:10355000000000000000000000000000000000006B
:10356000000000000000000000000000000000005B
:10357000000000000000000000000000000000004B
:10358000000000000000000000000000000000003B
:10359000000000000000000000000000000000002B
:1035A000000000000000000000000000000000001B
:1035B000000000000000001A0000000000000000F1
:1035C00000000000000000000000000000000100FA
:1035D00000000000000000000000000000000000EB
:1035E00000000000000000000000000000000000DB
:1035F00000000000000000000000000000000000CB
:1036000000000000000000000000000000000000BA
:1036100000000000000000000000000000000000AA
:10362000000000000000000000000000000000009A
:10363000000000000000000000000000000000008A
:10364000000000000000000000000000000000007A
:10365000000000000000000000000000000000006A
:10366000000000000000000000000000000000005A
:10367000000000000000000000000000000000004A
:10368000000000000000000000000000000000003A
:10369000000000000000000000000000000000002A
:1036A0000000000000000000000000000000000218
:1036B0000200000000000000000000000000000008
:1036C00000000000000000000000000000000100F9
:1036D00000000000000000000000000000000000EA
:1036E00000000000000000000000000000000000DA
:1036F00000000000000000000000000000000000CA
:1037000000000000000000000000000000000000B9
:1037100000000000000000000000000000000000A9
:103720000000000000000000000000000000000099
:103730000000000000000000000000000000000089
:103740000000000000000000000000000000000079
:103750000000000000000000000000000000000069
:103760000000000000000000000000000000000059
:103770000000000000000000000000000000000049
:103780000000000000000000000000000000000039
:103790000000000000000000000000000000000029
:1037A0000000000000000000000000000000000217
:1037B0000200000001000000000000000000000006
:1037C00000000000000000000000000000000100F8
:1037D00000000000000000000000000000000000E9
:1037E00000000000000000000000000000000000D9
:1037F00000000000000000000000000000000000C9
:1038000000000000000000000000000000000000B8
:1038100000000000000000000000000000000000A8
:103820000000000000000000000000000000000098
:103830000000000000000000000000000000000088
:103840000000000000000000000000000000000078
:103850000000000000000000000000000000000068
:103860000000000000000000000000000000000058
:103870000000000000000000000000000000000048
:103880000000000000000000000000000000000038
:103890000000000000000000000000000000000028
:1038A0000000000000000000000000000000000216
:1038B0000202010001010000000000000000000001
:1038C00000000000000000000000000001010100F5
:1038D00000000000000000000000000000000000E8
:1038E00000000000000000000000000000000000D8
:1038F00000000000000000000000000000000000C8
:1039000000000000000000000000000000000000B7
:1039100000000000000000000000000000000000A7
:103920000000000000000000000000000000000097
:103930000000000000000000000000000000000087
:103940000000000000000000000000000000000077
:103950000000000000000000000000000000000067
:103960000000000000000000000000000000000057
:103970000000000000000000000000000000000047
:103980000000000000000000000000000000000037
:103990000000000000000000000000000000000027
:1039A0000000000000000000000000000000000215
:1039B00002020200010100000000000000000000FF
:1039C00000000000000000000000000001010100F4
:1039D00000000000000000000000000000000000E7
:1039E00000000000000000000000000000000000D7
:1039F00000000000000000000000000000000000C7
:103A000000000000000000000000000000000000B6
:103A100000000000000000000000000000000000A6
:103A20000000000000000000000000000000000096
:103A30000000000000000000000000000000000086
:103A40000000000000000000000000000000000076
:103A50000000000000000000000000000000000066
:103A60000000000000000000000000000000000056
:103A70000000000000000000000000000000000046
:103A80000000000000000000000000000000000036
:103A90000000000000000000000000000000000026
:103AA0000000000000000000000000000000000214
:103AB00002020201010101000000000000000000FC
:103AC00000000000000000000000000001010100F3
:103AD00000000000000000000000000000000000E6
:103AE00000000000000000000000000000000000D6
:103AF00000000000000000000000000000000000C6
:103B000000000000000000000000000000000000B5
:103B100000000000000000000000000000000000A5
:103B20000000000000000000000000000000000095
:103B30000000000000000000000000000000000085
:103B40000000000000000000000000000000000075
:103B50000000000000000000000000000000000065
:103B60000000000000000000000000000000000055
:103B70000000000000000000000000000000000045
:103B80000000000000000000000000000000000035
:103B90000000000000000000000000000000000025
:103BA0000000000000000000000000000000000213
:103BB00002020202010101000000000000000000FA
:103BC00000000000000000000000000001010100F2
:103BD00000000000000000000000000000000000E5
:103BE00000000000000000000000000000000000D5
:103BF00000000000000000000000000000000000C5
:103C000000000000000000000000000000000000B4
:103C100000000000000000000000000000000000A4
:103C20000000000000000000000000000000000094
:103C30000000000000000000000000000000000084
:103C40000000000000000000000000000000000074
:103C50000000000000000000000000000000000064
:103C60000000000000000000000000000000000054
:103C70000000000000000000000000000000000044
:103C80000000000000000000000000000000000034
:103C90000000000000000000000000000000000024
:103CA0000000000000000000000000000000000212
:103CB00002020202020101000000000000000000F8
:103CC00000000000000000000000010101010100EF
:103CD00000000000000000000000000000000000E4
:103CE00000000000000000000000000000000000D4
:103CF00000000000000000000000000000000000C4
:103D000000000000000000000000000000000000B3
:103D100000000000000000000000000000000000A3
:103D20000000000000000000000000000000000093
:103D30000000000000000000000000000000000083
:103D40000000000000000000000000000000000073
:103D50000000000000000000000000000000000063
:103D60000000000000000000000000000000000053
:103D70000000000000000000000000000000000043
:103D80000000000000000000000000000000000033
:103D90000000000000000000000000000000000023
:103DA0000000000000000000000000000000000211
:103DB00002020202020201010100000000000000F4
:103DC00000000000000000000000010101010100EE
:103DD00000000000000000000000000000000000E3
:103DE00000000000000000000000000000000000D3
:103DF00000000000000000000000000000000000C3
:103E000000000000000000000000000000000000B2
:103E100000000000000000000000000000000000A2
:103E20000000000000000000000000000000000092
:103E30000000000000000000000000000000000082
:103E40000000000000000000000000000000000072
:103E50000000000000000000000000000000000062
:103E60000000000000000000000000000000000052
:103E70000000000000000000000000000000000042
:103E80000000000000000000000000000000000032
:103E90000000000000000000000000000000000022
:103EA0000000000000000000000000000000000210
:103EB00002020202020202010101010001000000EF
:103EC00000000000000000000001010101010100EC
:103ED00000000000000000000000000000000000E2
:103EE00000000000000000000000000000000000D2
:103EF00000000000000000000000000000000000C2
:103F000000000000000000000000000000000000B1
:103F100000000000000000000000000000000000A1
:103F20000000000000000000000000000000000091
:103F30000000000000000000000000000000000081
:103F40000000000000000000000000000000000071
:103F50000000000000000000000000000000000061
:103F60000000000000000000000000000000000051
:103F70000000000000000000000000000000000041
:103F80000000000000000000000000000000000031
:103F90000000000000000000000000000000000021
:103FA000000000000000000000000000000000020F
:103FB00002020202020202010101010001000000EE
:103FC00000000000000000000101010101010100EA
:103FD00000000000000000000000000000000000E1
:103FE00000000000000000000000000000000000D1
:103FF00000000000000000000000000000000000C1
:1040000000000000000000000000000000000000B0
:1040100000000000000000000000000000000000A0
:104020000000000000000000000000000000000090
:104030000000000000000000000000000000000080
:104040000000000000000000000000000000000070
:104050000000000000000000000000000000000060
:104060000000000000000000000000000000000050
:104070000000000000000000000000000000000040
:104080000000000000000000000000000000000030
:104090000000000000000000000000000000000020
:1040A000000000000000000000000000000000020E
:1040B00002020202020202020101010001000000EC
:1040C00000000000000000000101010101010100E9
:1040D00000000000000000000000000000000000E0
:1040E00000000000000000000000000000000000D0
:1040F00000000000000000000000000000000000C0
:1041000000000000000000000000000000000000AF
:10411000000000000000000000000000000000009F
:10412000000000000000000000000000000000008F
:10413000000000000000000000000000000000007F
:10414000000000000000000000000000000000006F
:10415000000000000000000000000000000000005F
:10416000000000000000000000000000000000004F
:10417000000000000000000000000000000000003F
:10418000000000000000000000000000000000002F
:10419000000000000000000000000000000000001F
:1041A000000000000000000000000000000000020D
:1041B00002020202020202020201010001000000EA
:1041C00000000000000000010101010101010100E7
:1041D00000000000000000000000000000000000DF
:1041E00000000000000000000000000000000000CF
:1041F00000000000000000000000000000000000BF
:1042000000000000000000000000000000000000AE
:10421000000000000000000000000000000000009E
:10422000000000000000000000000000000000008E
:10423000000000000000000000000000000000007E
:10424000000000000000000000000000000000006E
:10425000000000000000000000000000000000005E
:10426000000000000000000000000000000000004E
:10427000000000000000000000000000000000003E
:10428000000000000000000000000000000000002E
:10429000000000000000000000000000000000001E
:1042A000000000000000000000000000000000020C
:1042B00002020202020202020202010101000000E7
:1042C00000000000000101010101010101010100E4
:1042D00000000000000000000000000000000000DE
:1042E00000000000000000000000000000000000CE
:1042F00000000000000000000000000000000000BE
:1043000000000000000000000000000000000000AD
:10431000000000000000000000000000000000009D
:10432000000000000000000000000000000000008D
:10433000000000000000000000000000000000007D
:10434000000000000000000000000000000000006D
:10435000000000000000000000000000000000005D
:10436000000000000000000000000000000000004D
:10437000000000000000000000000000000000003D
:10438000000000000000000000000000000000002D
:10439000000000000000000000000000000000001D
:1043A000000000000000000000000000000000020B
:1043B00002020202020202020202020101000000E5
:1043C00000000000010101010101010101010100E2
:1043D00000000000000000000000000000000000DD
:1043E00000000000000000000000000000000000CD
:1043F00000000000000000000000000000000000BD
:1044000000000000000000000000000000000000AC
:10441000000000000000000000000000000000009C
:10442000000000000000000000000000000000008C
:10443000000000000000000000000000000000007C
:10444000000000000000000000000000000000006C
:10445000000000000000000000000000000000005C
:10446000000000000000000000000000000000004C
:10447000000000000000000000000000000000003C
:10448000000000000000000000000000000000002C
:10449000000000000000000000000000000000001C
:1044A000000000000000000000000000000000020A
:1044B00002020202020202020202020101010000E3
:1044C00000000000010101010101010101010100E1
:1044D00000000000000000000000000000000000DC
:1044E00000000000000000000000000000000000CC
:1044F00000000000000000000000000000000000BC
:1045000000000000000000000000000000000000AB
:10451000000000000000000000000000000000009B
:10452000000000000000000000000000000000008B
:10453000000000000000000000000000000000007B
:10454000000000000000000000000000000000006B
:10455000000000000000000000000000000000005B
:10456000000000000000000000000000000000004B
:10457000000000000000000000000000000000003B
:10458000000000000000000000000000000000002B
:10459000000000000000000000000000000000001B
:1045A0000000000000000000000000000000000209
:1045B00002020202020202020202020202010000E0
:1045C00000000000010101010101010101010100E0
:1045D00000000000000000000000000000000000DB
:1045E00000000000000000000000000000000000CB
:1045F00000000000000000000000000000000000BB
:1046000000000000000000000000000000000000AA
:10461000000000000000000000000000000000009A
:10462000000000000000000000000000000000008A
:10463000000000000000000000000000000000007A
:10464000000000000000000000000000000000006A
:10465000000000000000000000000000000000005A
:10466000000000000000000000000000000000004A
:10467000000000000000000000000000000000003A
:10468000000000000000000000000000000000002A
:10469000000000000000000000000000000000001A
:1046A0000000000000000000000000000000000208
:1046B00002020202020202020202020202010000DF
:1046C00000000000010101010101010101010100DF
:1046D00000000000000000000000000000000000DA
:1046E00000000000000000000000000000000000CA
:1046F00000000000000000000000000000000000BA
:1047000000000000000000000000000000000000A9
:104710000000000000000000000000000000000099
:104720000000000000000000000000000000000089
:104730000000000000000000000000000000000079
:104740000000000000000000000000000000000069
:104750000000000000000000000000000000000059
:104760000000000000000000000000000000000049
:104770000000000000000000000000000000000039
:104780000000000000000000000000000000000029
:104790000000000000000000000000000000000019
:1047A0000000000000000000000000000000000207
:1047B00002020202020202020202020202010000DE
:1047C00000000000010101010101010101010100DE
:1047D00000000000000000000000000000000000D9
:1047E00000000000000000000000000000000000C9
:1047F00000000000000000000000000000000000B9
:1048000000000000000000000000000000000000A8
:104810000000000000000000000000000000000098
:104820000000000000000000000000000000000088
:104830000000000000000000000000000000000078
:104840000000000000000000000000000000000068
:104850000000000000000000000000000000000058
:104860000000000000000000000000000000000048
:104870000000000000000000000000000000000038
:104880000000000000000000000000000000000028
:104890000000000000000000000000000000000018
:1048A0000000000000000000000000000000000206
:1048B00002020202020202020202020202020000DC
:1048C00000000001010101010101010101010100DC
:1048D00000000000000000000000000000000000D8
:1048E00000000000000000000000000000000000C8
:1048F00000000000000000000000000000000000B8
:1049000000000000000000000000000000000000A7
:104910000000000000000000000000000000000097
:104920000000000000000000000000000000000087
:104930000000000000000000000000000000000077
:104940000000000000000000000000000000000067
:104950000000000000000000000000000000000057
:104960000000000000000000000000000000000047
:104970000000000000000000000000000000000037
:104980000000000000000000000000000000000027
:104990000000000000000000000000000000000017
:1049A0000000000000000000000000000000000205
:1049B00002020202020202020202020202020000DB
:1049C00000000001010101010101010101010100DB
:1049D00000000000000000000000000000000000D7
:1049E00000000000000000000000000000000000C7
:1049F00000000000000000000000000000000000B7
:104A000000000000000000000000000000000000A6
:104A10000000000000000000000000000000000096
:104A20000000000000000000000000000000000086
:104A30000000000000000000000000000000000076
:104A40000000000000000000000000000000000066
:104A50000000000000000000000000000000000056
:104A60000000000000000000000000000000000046
:104A70000000000000000000000000000000000036
:104A80000000000000000000000000000000000026
:104A90000000000000000000000000000000000016
:104AA0000000000000000000000000000000000204
:104AB00002020202020202020202020202020000DA
:104AC00000000101010101010101010101010100D9
:104AD00000000000000000000000000000000000D6
:104AE00000000000000000000000000000000000C6
:104AF00000000000000000000000000000000000B6
:104B000000000000000000000000000000000000A5
:104B10000000000000000000000000000000000095
:104B20000000000000000000000000000000000085
:104B30000000000000000000000000000000000075
:104B40000000000000000000000000000000000065
:104B50000000000000000000000000000000000055
:104B60000000000000000000000000000000000045
:104B70000000000000000000000000000000000035
:104B80000000000000000000000000000000000025
:104B90000000000000000000000000000000000015
:104BA0000000000000000000000000000000000203
:104BB00002020202020202020202020202020000D9
:104BC00000000101010101010101010101010100D8
:104BD00000000000000000000000000000000000D5
:104BE00000000000000000000000000000000000C5
:104BF00000000000000000000000000000000000B5
:104C000000000000000000000000000000000000A4
:104C10000000000000000000000000000000000094
:104C20000000000000000000000000000000000084
:104C30000000000000000000000000000000000074
:104C40000000000000000000000000000000000064
:104C50000000000000000000000000000000000054
:104C60000000000000000000000000000000000044
:104C70000000000000000000000000000000000034
:104C80000000000000000000000000000000000024
:104C90000000000000000000000000000000000014
:104CA0000000000000000000000000000000000202
:104CB00002020202020202020202020202020000D8
:104CC00000010101010101010101010101010100D6
:104CD00000000000000000000000000000000000D4
:104CE00000000000000000000000000000000000C4
:104CF00000000000000000000000000000000000B4
:104D000000000000000000000000000000000000A3
:104D10000000000000000000000000000000000093
:104D20000000000000000000000000000000000083
:104D30000000000000000000000000000000000073
:104D40000000000000000000000000000000000063
:104D50000000000000000000000000000000000053
:104D60000000000000000000000000000000000043
:104D70000000000000000000000000000000000033
:104D80000000000000000000000000000000000023
:104D90000000000000000000000000000000000013
:104DA0000000000000000000000000000000000201
:104DB00002020202020202020202020202020000D7
