:10000000BD611693236A0100BC04000007060500C9
:100010000304021D3C180085000000004000001190
:100020004700000100040D00FFFC00000000005428
:10003000000306090C0F1215181B1E21262B302851
:1000400000000000000000086B070000000000E84E
:1000500015090000000000C8A20D0000000000A863
:100060002F1200000000009800000000000000A017
:10007000F3000000000000A8CA010000000000B06A
:1000800081020000000000B838030000000000C03A
:10009000CF030000000000C844040000000000D0AE
:1000A000B1040000000000D816050000000000E0C8
:1000B00073050000000000E8D0050000000000F01B
:1000C0002D060000000000F88E0600000000000071
:1000D000F8060000000000F300000000000000012E
:1000E0000101010101010101010101010101010100
:1000F00001010101010101010101010101010101F0
:1001000001010101010101010101010101010101DF
:1001100001010101010101010101010101010101CF
:1038D00001010101010101010101010101010100D9
:1038E00000000000000000000000000000000000D8
:1038F00000000000000000000000000000000000C8
:1039000000000000000000000000000000000000B7
:1039100000000000000000000000000000000000A7
:103CD00000000000000000000000000000000002E2
:103CE00002020202020202020202020202020202B4
:103CF00002020202020202020202020202020202A4
:103D00000202020202020202020202020202020293
:103D10000202020202020202020202020202020283
:1074D000020202020202020202020202020202008E
:1074E000000000000000000000000000000000009C
:1074F000000000000000000000000000000000008C
:10750000000000000000000000000000000000007B
:10751000000000000000000000000000000000006B
:107BD00000000000000000000000000000000001A4
:107BE0000101010101010101010101010101010185
:107BF0000101010101010101010101010101010175
:107C00000101010101010101010101010101010164
:107C10000101010101010101010101010101010154
:10B3D000010101010101010101010101010101005E
:10B3E000000000000000000000000000000000005D
:10B3F000000000000000000000000000000000004D
:10B40000000000000000000000000000000000003C
:10B41000000000000000000000000000000000002C
:10B7D0000000000000000000000000000000000267
:10B7E0000202020202020202020202020202020239
:10B7F0000202020202020202020202020202020229
:10B800000202020202020202020202020202020218
:10B810000202020202020202020202020202020208
:10EFD0000202020202020202020202020202020013
:10EFE0000000000000000000000000000000000021
:10EFF0000000000000000000000000000000000011
:10F000000000000000000000000000000000000000
:10F0100000000000000000000000000000000000F0
:10F3D000000000000000000000000000000000D756
:10F3E0000000000000000001010101010101010114
:10F3F00001010101010101010101010101010101FD
:10F4000001010101010101010101010101010101EC
:10F4100001010101010101010101010101010101DC
:10F4200001010101010101010101010101010101CC
:020000021000EC
:1024E00001010101010101000000000000000000E5
:1024F00000000000000000000000000000000000DC
:1025000000000000000000000000000000000000CB
:1025100000000000000000000000000000000000BB
:1025200000000000000000000000000000000000AB
:1028E00000000000000000020202020202020202D6
:1028F00002020202020202020202020202020202B8
:1029000002020202020202020202020202020202A7
:102910000202020202020202020202020202020297
:102920000202020202020202020202020202020287
:1059E00002020202020202000000000000000000A9
:1059F00000000000000000000000000000000000A7
:105A00000000000000000000000000000000000096
:105A10000000000000000000000000000000000086
:105A20000000000000000000000000000000000076
:1060E00000000000000000010101010101010101A7
:1060F0000101010101010101010101010101010190
:10610000010101010101010101010101010101017F
:10611000010101010101010101010101010101016F
:10612000010101010101010101010101010101015F
:1091E0000101010101010100000000000000000078
:1091F000000000000000000000000000000000006F
:10920000000000000000000000000000000000005E
:10921000000000000000000000000000000000004E
:10922000000000000000000000000000000000003E
:1095E0000000000000000002020202020202020269
:1095F000020202020202020202020202020202024B
:10960000020202020202020202020202020202023A
:10961000020202020202020202020202020202022A
:10962000020202020202020202020202020202021A
:10C6E000020202020202020000000000000000003C
:10C6F000000000000000000000000000000000003A
:10C700000000000000000000000000000000000029
:10C710000000000000000000000000000000000019
:10C720000000000000000000000000000000000009
:10CAE00000000000000000B700000000000000018E
:10CAF0000101010101010101010101010101010126
:10CB00000101010101010101010101010101010115
:10CB10000101010101010101010101010101010105
:10CB200001010101010101010101010101010101F5
:10F3E000010101010101010101010101010101000E
:10F3F000000000000000000000000000000000000D
:10F4000000000000000000000000000000000000FC
:10F4100000000000000000000000000000000000EC
:10F4200000000000000000000000000000000000DC
:10F7E0000000000000000000000000000000000217
:10F7F00002020202020202020202020202020202E9
:10F8000002020202020202020202020202020202D8
:10F8100002020202020202020202020202020202C8
:10F8200002020202020202020202020202020202B8
:020000022000DC
:1020E00002020202020202020202020202020200D2
:1020F00000000000000000000000000000000000E0
:1021000000000000000000000000000000000000CF
:1021100000000000000000000000000000000000BF
:1021200000000000000000000000000000000000AF
:1027E00000000000000000000000000000000001E8
:1027F00001010101010101010101010101010101C9
:1028000001010101010101010101010101010101B8
:1028100001010101010101010101010101010101A8
:102820000101010101010101010101010101010198
:1050E00001010101010101010101010101010100B1
:1050F00000000000000000000000000000000000B0
:10510000000000000000000000000000000000009F
:10511000000000000000000000000000000000008F
:10512000000000000000000000000000000000007F
:1054E00000000000000000000000000000000002BA
:1054F000020202020202020202020202020202028C
:10550000020202020202020202020202020202027B
:10551000020202020202020202020202020202026B
:10552000020202020202020202020202020202025B
:107DE0000202020202020202020202020202020075
:107DF0000000000000000000000000000000000083
:107E00000000000000000000000000000000000072
:107E10000000000000000000000000000000000062
:107E20000000000000000000000000000000000052
:1081E000000000000000000000000000000000B7D8
:1081F0000000000000000001010101010101010176
:10820000010101010101010101010101010101015E
:10821000010101010101010101010101010101014E
:10822000010101010101010101010101010101013E
:10823000010101010101010101010101010101012E
:10AAF000010101010101010000000000000000004F
:10AB00000000000000000000000000000000000045
:10AB10000000000000000000000000000000000035
:10AB20000000000000000000000000000000000025
:10AB30000000000000000000000000000000000015
:10AEF0000000000000000002020202020202020240
:10AF00000202020202020202020202020202020221
:10AF10000202020202020202020202020202020211
:10AF20000202020202020202020202020202020201
:10AF300002020202020202020202020202020202F1
:10D7F000020202020202020000000000000000001B
:10D800000000000000000000000000000000000018
:10D810000000000000000000000000000000000008
:10D8200000000000000000000000000000000000F8
:10D8300000000000000000000000000000000000E8
:10DEF0000000000000000001010101010101010119
:10DF00000101010101010101010101010101010101
:10DF100001010101010101010101010101010101F1
:10DF200001010101010101010101010101010101E1
:10DF300001010101010101010101010101010101D1
:020000023000CC
:1007F00001010101010101000000000000000000F2
:1008000000000000000000000000000000000000E8
:1008100000000000000000000000000000000000D8
:1008200000000000000000000000000000000000C8
:1008300000000000000000000000000000000000B8
:100BF00000000000000000020202020202020202E3
:100C000002020202020202020202020202020202C4
:100C100002020202020202020202020202020202B4
:100C200002020202020202020202020202020202A4
:100C30000202020202020202020202020202020294
:1034F00002020202020202000000000000000000BE
:1035000000000000000000000000000000000000BB
:1035100000000000000000000000000000000000AB
:10352000000000000000000000000000000000009B
:10353000000000000000000000000000000000008B
:1038F0000000000000000097000000000000000130
:1039000001010101010101010101010101010101A7
:103910000101010101010101010101010101010197
:103920000101010101010101010101010101010187
:103930000101010101010101010101010101010177
:1059F0000101010101010101010101010101010098
:105A00000000000000000000000000000000000096
:105A10000000000000000000000000000000000086
:105A20000000000000000000000000000000000076
:105A30000000000000000000000000000000000066
:105DF00000000000000000000000000000000002A1
:105E00000202020202020202020202020202020272
:105E10000202020202020202020202020202020262
:105E20000202020202020202020202020202020252
:105E30000202020202020202020202020202020242
:107EF0000202020202020202020202020202020064
:107F00000000000000000000000000000000000071
:107F10000000000000000000000000000000000061
:107F20000000000000000000000000000000000051
:107F30000000000000000000000000000000000041
:1085F000000000000000000000000000000000017A
:10860000010101010101010101010101010101015A
:10861000010101010101010101010101010101014A
:10862000010101010101010101010101010101013A
:10863000010101010101010101010101010101012A
:10A6F000010101010101010101010101010101004B
:10A700000000000000000000000000000000000049
:10A710000000000000000000000000000000000039
:10A720000000000000000000000000000000000029
:10A730000000000000000000000000000000000019
:10AAF0000000000000000000000000000000000254
:10AB00000202020202020202020202020202020225
:10AB10000202020202020202020202020202020215
:10AB20000202020202020202020202020202020205
:10AB300002020202020202020202020202020202F5
:10CBF0000202020202020202020202020202020017
:10CC00000000000000000000000000000000000024
:10CC10000000000000000000000000000000000014
:10CC20000000000000000000000000000000000004
:10CC300000000000000000000000000000000000F4
:10CFF00000000000000000000000000000000075BC
:10D000000000000000000001010101010101010117
:10D010000101010101010101010101010101010100
:10D0200001010101010101010101010101010101F0
:10D0300001010101010101010101010101010101E0
:10D0400001010101010101010101010101010101D0
:10EA000001010101010101000000000000000000FF
:10EA100000000000000000000000000000000000F6
:10EA200000000000000000000000000000000000E6
:10EA300000000000000000000000000000000000D6
:10EA400000000000000000000000000000000000C6
:10EE000000000000000000020202020202020202F0
:10EE100002020202020202020202020202020202D2
:10EE200002020202020202020202020202020202C2
:10EE300002020202020202020202020202020202B2
:10EE400002020202020202020202020202020202A2
:020000024000BC
:1008000002020202020202000000000000000000DA
:1008100000000000000000000000000000000000D8
:1008200000000000000000000000000000000000C8
:1008300000000000000000000000000000000000B8
:1008400000000000000000000000000000000000A8
:100C000000000000000000010101010101010101DB
:100C100001010101010101010101010101010101C4
:100C200001010101010101010101010101010101B4
:100C300001010101010101010101010101010101A4
:100C40000101010101010101010101010101010194
:1026000001010101010101000000000000000000C3
:1026100000000000000000000000000000000000BA
:1026200000000000000000000000000000000000AA
:10263000000000000000000000000000000000009A
:10264000000000000000000000000000000000008A
:102A000000000000000000020202020202020202B4
:102A10000202020202020202020202020202020296
:102A20000202020202020202020202020202020286
:102A30000202020202020202020202020202020276
:102A40000202020202020202020202020202020266
:10440000020202020202020000000000000000009E
:10441000000000000000000000000000000000009C
:10442000000000000000000000000000000000008C
:10443000000000000000000000000000000000007C
:10444000000000000000000000000000000000006C
:10445000000000000000000000000000000000005C
:10446000000000000000000000000000000000004C
:10447000000000000000000000000000000000003C
:10448000000000000000000000000000000000002C
:10449000000000000000000000000000000000001C
:1044A000000000000000000000000000000000000C
:1044B00000000000000000000000000000000000FC
:1044C00000000000000000000000000000000000EC
:1044D00000000000000000000000000000000000DC
:1044E00000000000000000000000000000000000CC
:1044F00000000000000000000000000000000000BC
:10450000000000000000006D00000000000000013D
:10451000010101010101010101010101010101018B
:10452000010101010101010101010101010101017B
:10453000010101010101010101010101010101016B
:10454000010101010101010101010101010101015B
:105D00000101010101010101010101010101010084
:105D10000000000000000000000000000000000083
:105D20000000000000000000000000000000000073
:105D30000000000000000000000000000000000063
:105D40000000000000000000000000000000000053
:10610000000000000000000000000000000000028D
:10611000020202020202020202020202020202025F
:10612000020202020202020202020202020202024F
:10613000020202020202020202020202020202023F
:10614000020202020202020202020202020202022F
:107900000202020202020202020202020202020059
:107910000000000000000000000000000000000067
:107920000000000000000000000000000000000057
:107930000000000000000000000000000000000047
:107940000000000000000000000000000000000037
:107D00000000000000000000000000000000000172
:107D10000101010101010101010101010101010153
:107D20000101010101010101010101010101010143
:107D30000101010101010101010101010101010133
:107D40000101010101010101010101010101010123
:10950000010101010101010101010101010101004C
:10951000000000000000000000000000000000004B
:10952000000000000000000000000000000000003B
:10953000000000000000000000000000000000002B
:10954000000000000000000000000000000000001B
:109900000000000000000000000000000000000255
:109910000202020202020202020202020202020227
:109920000202020202020202020202020202020217
:109930000202020202020202020202020202020207
:1099400002020202020202020202020202020202F7
:10B100000202020202020202020202020202020021
:10B11000000000000000000000000000000000002F
:10B12000000000000000000000000000000000001F
:10B13000000000000000000000000000000000000F
:10B1400000000000000000000000000000000000FF
:10B1500000000000000000000000000000000000EF
:10B1600000000000000000000000000000000000DF
:10B1700000000000000000000000000000000000CF
:10B1800000000000000000000000000000000000BF
:10B1900000000000000000000000000000000000AF
:10B1A000000000000000000000000000000000009F
:10B1B000000000000000000000000000000000008F
:10B1C000000000000000000000000000000000007F
:10B1D000000000000000000000000000000000006F
:10B1E000000000000000000000000000000000005F
:10B1F000000000000000000000000000000000004F
:10B2000000000000000000000000000000000065D9
:10B210000000000000000001010101010101010125
:10B22000010101010101010101010101010101010E
:10B2300001010101010101010101010101010101FE
:10B2400001010101010101010101010101010101EE
:10B2500001010101010101010101010101010101DE
:10C810000101010101010100000000000000000011
:10C820000000000000000000000000000000000008
:10C8300000000000000000000000000000000000F8
:10C8400000000000000000000000000000000000E8
:10C8500000000000000000000000000000000000D8
:10CC10000000000000000002020202020202020202
:10CC200002020202020202020202020202020202E4
:10CC300002020202020202020202020202020202D4
:10CC400002020202020202020202020202020202C4
:10CC500002020202020202020202020202020202B4
:10E2100002020202020202000000000000000000F0
:10E2200000000000000000000000000000000000EE
:10E2300000000000000000000000000000000000DE
:10E2400000000000000000000000000000000000CE
:10E2500000000000000000000000000000000000BE
:10E6100000000000000000010101010101010101F1
:10E6200001010101010101010101010101010101DA
:10E6300001010101010101010101010101010101CA
:10E6400001010101010101010101010101010101BA
:10E6500001010101010101010101010101010101AA
:10FC100001010101010101000000000000000000DD
:10FC200000000000000000000000000000000000D4
:10FC300000000000000000000000000000000000C4
:10FC400000000000000000000000000000000000B4
:10FC500000000000000000000000000000000000A4
:020000025000AC
:1000100000000000000000020202020202020202CE
:1000200002020202020202020202020202020202B0
:1000300002020202020202020202020202020202A0
:100040000202020202020202020202020202020290
:100050000202020202020202020202020202020280
:1016100002020202020202000000000000000000BC
:1016200000000000000000000000000000000000BA
:1016300000000000000000000000000000000000AA
:10164000000000000000000000000000000000009A
:10165000000000000000000000000000000000008A
:10166000000000000000000000000000000000007A
:10167000000000000000000000000000000000006A
:10168000000000000000000000000000000000005A
:10169000000000000000000000000000000000004A
:1016A000000000000000000000000000000000003A
:1016B000000000000000000000000000000000002A
:1016C000000000000000000000000000000000001A
:1016D000000000000000000000000000000000000A
:1016E00000000000000000000000000000000000FA
:1016F00000000000000000000000000000000000EA
:1017000000000000000000000000000000000000D9
:10171000000000000000005D00000000000000016B
:1017200001010101010101010101010101010101A9
:101730000101010101010101010101010101010199
:101740000101010101010101010101010101010189
:101750000101010101010101010101010101010179
:102B100001010101010101010101010101010100A6
:102B200000000000000000000000000000000000A5
:102B30000000000000000000000000000000000095
:102B40000000000000000000000000000000000085
:102B50000000000000000000000000000000000075
:102F100000000000000000000000000000000002AF
:102F20000202020202020202020202020202020281
:102F30000202020202020202020202020202020271
:102F40000202020202020202020202020202020261
:102F50000202020202020202020202020202020251
:10431000020202020202020202020202020202007F
:10432000000000000000000000000000000000008D
:10433000000000000000000000000000000000007D
:10434000000000000000000000000000000000006D
:10435000000000000000000000000000000000005D
:104710000000000000000000000000000000000198
:104720000101010101010101010101010101010179
:104730000101010101010101010101010101010169
:104740000101010101010101010101010101010159
:104750000101010101010101010101010101010149
:105B10000101010101010101010101010101010076
:105B20000000000000000000000000000000000075
:105B30000000000000000000000000000000000065
:105B40000000000000000000000000000000000055
:105B50000000000000000000000000000000000045
:105F1000000000000000000000000000000000027F
:105F20000202020202020202020202020202020251
:105F30000202020202020202020202020202020241
:105F40000202020202020202020202020202020231
:105F50000202020202020202020202020202020221
:10731000020202020202020202020202020202004F
:10732000000000000000000000000000000000005D
:10733000000000000000000000000000000000004D
:10734000000000000000000000000000000000003D
:10735000000000000000000000000000000000002D
:10736000000000000000000000000000000000001D
:10737000000000000000000000000000000000000D
:1073800000000000000000000000000000000000FD
:1073900000000000000000000000000000000000ED
:1073A00000000000000000000000000000000000DD
:1073B00000000000000000000000000000000000CD
:1073C00000000000000000000000000000000000BD
:1073D00000000000000000000000000000000000AD
:1073E000000000000000000000000000000000009D
:1073F000000000000000000000000000000000008D
:10740000000000000000000000000000000000007C
:107410000000000000000000000000000000005D0F
:107420000000000000000001010101010101010153
:10743000010101010101010101010101010101013C
:10744000010101010101010101010101010101012C
:10745000010101010101010101010101010101011C
:10746000010101010101010101010101010101010C
:108820000101010101010100000000000000000041
:108830000000000000000000000000000000000038
:108840000000000000000000000000000000000028
:108850000000000000000000000000000000000018
:108860000000000000000000000000000000000008
:108C20000000000000000002020202020202020232
:108C30000202020202020202020202020202020214
:108C40000202020202020202020202020202020204
:108C500002020202020202020202020202020202F4
:108C600002020202020202020202020202020202E4
:10A020000202020202020200000000000000000022
:10A030000000000000000000000000000000000020
:10A040000000000000000000000000000000000010
:10A050000000000000000000000000000000000000
:10A0600000000000000000000000000000000000F0
:10A420000000000000000001010101010101010123
:10A43000010101010101010101010101010101010C
:10A4400001010101010101010101010101010101FC
:10A4500001010101010101010101010101010101EC
:10A4600001010101010101010101010101010101DC
:10B820000101010101010100000000000000000011
:10B830000000000000000000000000000000000008
:10B8400000000000000000000000000000000000F8
:10B8500000000000000000000000000000000000E8
:10B8600000000000000000000000000000000000D8
:10BC20000000000000000002020202020202020202
:10BC300002020202020202020202020202020202E4
:10BC400002020202020202020202020202020202D4
:10BC500002020202020202020202020202020202C4
:10BC600002020202020202020202020202020202B4
:10D0200002020202020202000000000000000000F2
:10D0300000000000000000000000000000000000F0
:10D0400000000000000000000000000000000000E0
:10D0500000000000000000000000000000000000D0
:10D0600000000000000000000000000000000000C0
:10D0700000000000000000000000000000000000B0
:10D0800000000000000000000000000000000000A0
:10D090000000000000000000000000000000000090
:10D0A0000000000000000000000000000000000080
:10D0B0000000000000000000000000000000000070
:10D0C0000000000000000000000000000000000060
:10D0D0000000000000000000000000000000000050
:10D0E0000000000000000000000000000000000040
:10D0F0000000000000000000000000000000000030
:10D10000000000000000000000000000000000001F
:10D11000000000000000000000000000000000000F
:10D12000000000000000005D0000000000000001A1
:10D1300001010101010101010101010101010101DF
:10D1400001010101010101010101010101010101CF
:10D1500001010101010101010101010101010101BF
:10D1600001010101010101010101010101010101AF
:10E5200001010101010101010101010101010100DC
:10E5300000000000000000000000000000000000DB
:10E5400000000000000000000000000000000000CB
:10E5500000000000000000000000000000000000BB
:10E5600000000000000000000000000000000000AB
:10E9200000000000000000000000000000000002E5
:10E9300002020202020202020202020202020202B7
:10E9400002020202020202020202020202020202A7
:10E950000202020202020202020202020202020297
:10E960000202020202020202020202020202020287
:10FD200002020202020202020202020202020200B5
:10FD300000000000000000000000000000000000C3
:10FD400000000000000000000000000000000000B3
:10FD500000000000000000000000000000000000A3
:10FD60000000000000000000000000000000000093
:0200000260009C
:1001200000000000000000000000000000000001CE
:1001300001010101010101010101010101010101AF
:10014000010101010101010101010101010101019F
:10015000010101010101010101010101010101018F
:10016000010101010101010101010101010101017F
:1015200001010101010101010101010101010100AC
:1015300000000000000000000000000000000000AB
:10154000000000000000000000000000000000009B
:10155000000000000000000000000000000000008B
:10156000000000000000000000000000000000007B
:1019200000000000000000000000000000000002B5
:101930000202020202020202020202020202020287
:101940000202020202020202020202020202020277
:101950000202020202020202020202020202020267
:101960000202020202020202020202020202020257
:102D20000202020202020202020202020202020085
:102D30000000000000000000000000000000000093
:102D40000000000000000000000000000000000083
:102D50000000000000000000000000000000000073
:102D60000000000000000000000000000000000063
:102D70000000000000000000000000000000000053
:102D80000000000000000000000000000000000043
:102D90000000000000000000000000000000000033
:102DA0000000000000000000000000000000000023
:102DB0000000000000000000000000000000000013
:102DC0000000000000000000000000000000000003
:102DD00000000000000000000000000000000000F3
:102DE00000000000000000000000000000000000E3
:102DF00000000000000000000000000000000000D3
:102E000000000000000000000000000000000000C2
:102E100000000000000000000000000000000000B2
:102E20000000000000000000000000000000006141
:102E30000000000000000001010101010101010189
:102E40000101010101010101010101010101010172
:102E50000101010101010101010101010101010162
:102E60000101010101010101010101010101010152
:102E70000101010101010101010101010101010142
:104230000101010101010100000000000000000077
:10424000000000000000000000000000000000006E
:10425000000000000000000000000000000000005E
:10426000000000000000000000000000000000004E
:10427000000000000000000000000000000000003E
:104630000000000000000002020202020202020268
:10464000020202020202020202020202020202024A
:10465000020202020202020202020202020202023A
:10466000020202020202020202020202020202022A
:10467000020202020202020202020202020202021A
:105A30000202020202020200000000000000000058
:105A40000000000000000000000000000000000056
:105A50000000000000000000000000000000000046
:105A60000000000000000000000000000000000036
:105A70000000000000000000000000000000000026
:106030000000000000000001010101010101010157
:106040000101010101010101010101010101010140
:106050000101010101010101010101010101010130
:106060000101010101010101010101010101010120
:106070000101010101010101010101010101010110
:107430000101010101010100000000000000000045
:10744000000000000000000000000000000000003C
:10745000000000000000000000000000000000002C
:10746000000000000000000000000000000000001C
:10747000000000000000000000000000000000000C
:107830000000000000000002020202020202020236
:107840000202020202020202020202020202020218
:107850000202020202020202020202020202020208
:1078600002020202020202020202020202020202F8
:1078700002020202020202020202020202020202E8
:108C30000202020202020200000000000000000026
:108C40000000000000000000000000000000000024
:108C50000000000000000000000000000000000014
:108C60000000000000000000000000000000000004
:108C700000000000000000000000000000000000F4
:108F300000000000000000690000000000000001C7
:108F40000101010101010101010101010101010111
:108F50000101010101010101010101010101010101
:108F600001010101010101010101010101010101F1
:108F700001010101010101010101010101010101E1
:10A33000010101010101010101010101010101000E
:10A34000000000000000000000000000000000000D
:10A3500000000000000000000000000000000000FD
:10A3600000000000000000000000000000000000ED
:10A3700000000000000000000000000000000000DD
:10A730000000000000000000000000000000000217
:10A7400002020202020202020202020202020202E9
:10A7500002020202020202020202020202020202D9
:10A7600002020202020202020202020202020202C9
:10A7700002020202020202020202020202020202B9
:10BB300002020202020202020202020202020200E7
:10BB400000000000000000000000000000000000F5
:10BB500000000000000000000000000000000000E5
:10BB600000000000000000000000000000000000D5
:10BB700000000000000000000000000000000000C5
:10C5300000000000000000000000000000000001FA
:10C5400001010101010101010101010101010101DB
:10C5500001010101010101010101010101010101CB
:10C5600001010101010101010101010101010101BB
:10C5700001010101010101010101010101010101AB
:10D9300001010101010101010101010101010100D8
:10D9400000000000000000000000000000000000D7
:10D9500000000000000000000000000000000000C7
:10D9600000000000000000000000000000000000B7
:10D9700000000000000000000000000000000000A7
:10DD300000000000000000000000000000000002E1
:10DD400002020202020202020202020202020202B3
:10DD500002020202020202020202020202020202A3
:10DD60000202020202020202020202020202020293
:10DD70000202020202020202020202020202020283
:10F1300002020202020202020202020202020200B1
:10F1400000000000000000000000000000000000BF
:10F1500000000000000000000000000000000000AF
:10F16000000000000000000000000000000000009F
:10F17000000000000000000000000000000000008F
:10F830000000000000000000000000000000007355
:10F8400000000000000000010101010101010101AF
:10F850000101010101010101010101010101010198
:10F860000101010101010101010101010101010188
:10F870000101010101010101010101010101010178
:10F880000101010101010101010101010101010168
:0200000270008C
:100C4000010101010101010000000000000000009D
:100C50000000000000000000000000000000000094
:100C60000000000000000000000000000000000084
:100C70000000000000000000000000000000000074
:100C80000000000000000000000000000000000064
:10104000000000000000000202020202020202028E
:101050000202020202020202020202020202020270
:101060000202020202020202020202020202020260
:101070000202020202020202020202020202020250
:101080000202020202020202020202020202020240
:10244000020202020202020000000000000000007E
:10245000000000000000000000000000000000007C
:10246000000000000000000000000000000000006C
:10247000000000000000000000000000000000005C
:10248000000000000000000000000000000000004C
:103340000000000000000001010101010101010174
:10335000010101010101010101010101010101015D
:10336000010101010101010101010101010101014D
:10337000010101010101010101010101010101013D
:10338000010101010101010101010101010101012D
:104740000101010101010100000000000000000062
:104750000000000000000000000000000000000059
:104760000000000000000000000000000000000049
:104770000000000000000000000000000000000039
:104780000000000000000000000000000000000029
:104B40000000000000000002020202020202020253
:104B50000202020202020202020202020202020235
:104B60000202020202020202020202020202020225
:104B70000202020202020202020202020202020215
:104B80000202020202020202020202020202020205
:105F40000202020202020200000000000000000043
:105F50000000000000000000000000000000000041
:105F60000000000000000000000000000000000031
:105F70000000000000000000000000000000000021
:105F80000000000000000000000000000000000011
:106B400000000000000000786B07000000000080DB
:106B5000A407000000000088D60700000000009095
:106B600000080000000000982A080000000000A0B3
:106B70004C080000000000A867080000000000B0FA
:106B800080080000000000B897080000000000C066
:106B9000AC080000000000C8C1080000000000D0E0
:106BA000D6080000000000D8EB080000000000E05C
:106BB0000009000000000039000000000000000093
:106BC00000000000000000000000000000000100C4
:106BD00000000000000000000000000000000000B5
:106BE00000000000000000000000000000000000A5
:106BF0000000000000000000000000000000000095
:106C00000000000000000000000000000000000084
:106C10000000000000000000000000000000000074
:106C20000000000000000000000000000000000064
:106C30000000000000000000000000000000000054
:106C40000000000000000000000000000000000044
:106C50000000000000000000000000000000000034
:106C60000000000000000000000000000000000024
:106C70000000000000000000000000000000000014
:106C80000000000000000000000000000000000004
:106C900000000000000000000000000000000000F4
:106CA00000000000000000000000000000000002E2
:106CB00000000000000000000000000000000000D4
:106CC00000000000000000000000000000000100C3
:106CD00000000000000000000000000000000000B4
:106CE00000000000000000000000000000000000A4
:106CF0000000000000000000000000000000000094
:106D00000000000000000000000000000000000083
:106D10000000000000000000000000000000000073
:106D20000000000000000000000000000000000063
:106D30000000000000000000000000000000000053
:106D40000000000000000000000000000000000043
:106D50000000000000000000000000000000000033
:106D60000000000000000000000000000000000023
:106D70000000000000000000000000000000000013
:106D80000000000000000000000000000000000003
:106D900000000000000000000000000000000000F3
:106DA00000000000000000000000000000000002E1
:106DB00000010101010101010001000100000000CA
:106DC00000000000000000000000000000000100C2
:106DD00000000000000000000000000000000000B3
:106DE00000000000000000000000000000000000A3
:106DF0000000000000000000000000000000000093
:106E00000000000000000000000000000000000082
:106E10000000000000000000000000000000000072
:106E20000000000000000000000000000000000062
:106E30000000000000000000000000000000000052
:106E40000000000000000000000000000000000042
:106E50000000000000000000000000000000000032
:106E60000000000000000000000000000000000022
:106E70000000000000000000000000000000000012
:106E80000000000000000000000000000000000002
:106E900000000000000000000000000000000000F2
:106EA00000000000000000000000000000000002E0
:106EB00001010101010101010101010101010000C4
:106EC00000000000000000000000000000000100C1
:106ED00000000000000000000000000000000000B2
:106EE00000000000000000000000000000000000A2
:106EF0000000000000000000000000000000000092
:106F00000000000000000000000000000000000081
:106F10000000000000000000000000000000000071
:106F20000000000000000000000000000000000061
:106F30000000000000000000000000000000000051
:106F40000000000000000000000000000000000041
:106F50000000000000000000000000000000000031
:106F60000000000000000000000000000000000021
:106F70000000000000000000000000000000000011
:106F80000000000000000000000000000000000001
:106F900000000000000000000000000000000000F1
:106FA00000000000000000000000000000000002DF
:106FB00002010101010101010101010101010000C2
:106FC00000000000000000000000000000000100C0
:106FD00000000000000000000000000000000000B1
:106FE00000000000000000000000000000000000A1
:106FF0000000000000000000000000000000000091
:107000000000000000000000000000000000000080
:107010000000000000000000000000000000000070
:107020000000000000000000000000000000000060
:107030000000000000000000000000000000000050
:107040000000000000000000000000000000000040
:107050000000000000000000000000000000000030
:107060000000000000000000000000000000000020
:107070000000000000000000000000000000000010
:107080000000000000000000000000000000000000
:1070900000000000000000000000000000000000F0
:1070A00000000000000000000000000000000002DE
:1070B00002010101010101010101010101010000C1
:1070C00000000000000000000000000000000100BF
:1070D00000000000000000000000000000000000B0
:1070E00000000000000000000000000000000000A0
:1070F0000000000000000000000000000000000090
:10710000000000000000000000000000000000007F
:10711000000000000000000000000000000000006F
:10712000000000000000000000000000000000005F
:10713000000000000000000000000000000000004F
:10714000000000000000000000000000000000003F
:10715000000000000000000000000000000000002F
:10716000000000000000000000000000000000001F
:10717000000000000000000000000000000000000F
:1071800000000000000000000000000000000000FF
:1071900000000000000000000000000000000000EF
:1071A00000000000000000000000000000000002DD
:1071B00002010101010101010101010101010000C0
:1071C00000000000000000000000000000010100BD
:1071D00000000000000000000000000000000000AF
:1071E000000000000000000000000000000000009F
:1071F000000000000000000000000000000000008F
:10720000000000000000000000000000000000007E
:10721000000000000000000000000000000000006E
:10722000000000000000000000000000000000005E
:10723000000000000000000000000000000000004E
:10724000000000000000000000000000000000003E
:10725000000000000000000000000000000000002E
:10726000000000000000000000000000000000001E
:10727000000000000000000000000000000000000E
:1072800000000000000000000000000000000000FE
:1072900000000000000000000000000000000000EE
:1072A00000000000000000000000000000000002DC
:1072B00002020101010101010101010101010000BE
:1072C00000000000000000000000000000010100BC
:1072D00000000000000000000000000000000000AE
:1072E000000000000000000000000000000000009E
:1072F000000000000000000000000000000000008E
:10730000000000000000000000000000000000007D
:10731000000000000000000000000000000000006D
:10732000000000000000000000000000000000005D
:10733000000000000000000000000000000000004D
:10734000000000000000000000000000000000003D
:10735000000000000000000000000000000000002D
:10736000000000000000000000000000000000001D
:10737000000000000000000000000000000000000D
:1073800000000000000000000000000000000000FD
:1073900000000000000000000000000000000000ED
:1073A00000000000000000000000000000000002DB
:1073B00002020101010101010101010101010000BD
:1073C00000000000000000000000000000010100BB
:1073D00000000000000000000000000000000000AD
:1073E000000000000000000000000000000000009D
:1073F000000000000000000000000000000000008D
:10740000000000000000000000000000000000007C
:10741000000000000000000000000000000000006C
:10742000000000000000000000000000000000005C
:10743000000000000000000000000000000000004C
:10744000000000000000000000000000000000003C
:10745000000000000000000000000000000000002C
:10746000000000000000000000000000000000001C
:10747000000000000000000000000000000000000C
:1074800000000000000000000000000000000000FC
:1074900000000000000000000000000000000000EC
:1074A00000000000000000000000000000000002DA
:1074B00002020201010101010101010101010000BB
:1074C00000000000000000000000000000010100BA
:1074D00000000000000000000000000000000000AC
:1074E000000000000000000000000000000000009C
:1074F000000000000000000000000000000000008C
:10750000000000000000000000000000000000007B
:10751000000000000000000000000000000000006B
:10752000000000000000000000000000000000005B
:10753000000000000000000000000000000000004B
:10754000000000000000000000000000000000003B
:10755000000000000000000000000000000000002B
:10756000000000000000000000000000000000001B
:10757000000000000000000000000000000000000B
:1075800000000000000000000000000000000000FB
:1075900000000000000000000000000000000000EB
:1075A00000000000000000000000000000000002D9
:1075B00002020202010101010101010101010000B9
:1075C00000000000000000000000000000010100B9
:1075D00000000000000000000000000000000000AB
:1075E000000000000000000000000000000000009B
:1075F000000000000000000000000000000000008B
:10760000000000000000000000000000000000007A
:10761000000000000000000000000000000000006A
:10762000000000000000000000000000000000005A
:10763000000000000000000000000000000000004A
:10764000000000000000000000000000000000003A
:10765000000000000000000000000000000000002A
:10766000000000000000000000000000000000001A
:10767000000000000000000000000000000000000A
:1076800000000000000000000000000000000000FA
:1076900000000000000000000000000000000000EA
:1076A00000000000000000000000000000000002D8
:1076B00002020202010101010101010101010000B8
:1076C00000000000000000000000000000010100B8
:1076D00000000000000000000000000000000000AA
:1076E000000000000000000000000000000000009A
:1076F000000000000000000000000000000000008A
:107700000000000000000000000000000000000079
:107710000000000000000000000000000000000069
:107720000000000000000000000000000000000059
:107730000000000000000000000000000000000049
:107740000000000000000000000000000000000039
:107750000000000000000000000000000000000029
:107760000000000000000000000000000000000019
:107770000000000000000000000000000000000009
:1077800000000000000000000000000000000000F9
:1077900000000000000000000000000000000000E9
:1077A00000000000000000000000000000000002D7
:1077B00002020202010101010101010101010000B7
:1077C00000000000000000000000000001010100B6
:1077D00000000000000000000000000000000000A9
:1077E0000000000000000000000000000000000099
:1077F0000000000000000000000000000000000089
:107800000000000000000000000000000000000078
:107810000000000000000000000000000000000068
:107820000000000000000000000000000000000058
:107830000000000000000000000000000000000048
:107840000000000000000000000000000000000038
:107850000000000000000000000000000000000028
:107860000000000000000000000000000000000018
:107870000000000000000000000000000000000008
:1078800000000000000000000000000000000000F8
:1078900000000000000000000000000000000000E8
:1078A00000000000000000000000000000000002D6
:1078B00002020202020101010101010101010000B5
:1078C00000000000000000000000000101010100B4
:1078D00000000000000000000000000000000000A8
:1078E0000000000000000000000000000000000098
:1078F0000000000000000000000000000000000088
:107900000000000000000000000000000000000077
:107910000000000000000000000000000000000067
:107920000000000000000000000000000000000057
:107930000000000000000000000000000000000047
:107940000000000000000000000000000000000037
:107950000000000000000000000000000000000027
:107960000000000000000000000000000000000017
:107970000000000000000000000000000000000007
:1079800000000000000000000000000000000000F7
:1079900000000000000000000000000000000000E7
:1079A00000000000000000000000000000000002D5
:1079B00002020202020101010101010101010000B4
:1079C00000000000000000000000000101010100B3
:1079D00000000000000000000000000000000000A7
:1079E0000000000000000000000000000000000097
:1079F0000000000000000000000000000000000087
:107A00000000000000000000000000000000000076
:107A10000000000000000000000000000000000066
:107A20000000000000000000000000000000000056
:107A30000000000000000000000000000000000046
:107A40000000000000000000000000000000000036
:107A50000000000000000000000000000000000026
:107A60000000000000000000000000000000000016
:107A70000000000000000000000000000000000006
:107A800000000000000000000000000000000000F6
:107A900000000000000000000000000000000000E6
:107AA00000000000000000000000000000000002D4
:107AB00002020202020101010101010101010000B3
:107AC00000000000000000000000000101010100B2
:107AD00000000000000000000000000000000000A6
:107AE0000000000000000000000000000000000096
:107AF0000000000000000000000000000000000086
:107B00000000000000000000000000000000000075
:107B10000000000000000000000000000000000065
:107B20000000000000000000000000000000000055
:107B30000000000000000000000000000000000045
:107B40000000000000000000000000000000000035
:107B50000000000000000000000000000000000025
:107B60000000000000000000000000000000000015
:107B70000000000000000000000000000000000005
:107B800000000000000000000000000000000000F5
:107B900000000000000000000000000000000000E5
:107BA00000000000000000000000000000000002D3
:107BB00002020202020202010101010101010000B0
:107BC00000000000000000000000010101010100B0
:107BD00000000000000000000000000000000000A5
:107BE0000000000000000000000000000000000095
:107BF0000000000000000000000000000000000085
:107C00000000000000000000000000000000000074
:107C10000000000000000000000000000000000064
:107C20000000000000000000000000000000000054
:107C30000000000000000000000000000000000044
:107C40000000000000000000000000000000000034
:107C50000000000000000000000000000000000024
:107C60000000000000000000000000000000000014
:107C70000000000000000000000000000000000004
:107C800000000000000000000000000000000000F4
:107C900000000000000000000000000000000000E4
:107CA00000000000000000000000000000000002D2
:107CB00002020202020202020101010101010000AE
:107CC00000000000000000000000010101010100AF
:107CD00000000000000000000000000000000000A4
:107CE0000000000000000000000000000000000094
:107CF0000000000000000000000000000000000084
:107D00000000000000000000000000000000000073
:107D10000000000000000000000000000000000063
:107D20000000000000000000000000000000000053
:107D30000000000000000000000000000000000043
:107D40000000000000000000000000000000000033
:107D50000000000000000000000000000000000023
:107D60000000000000000000000000000000000013
:107D70000000000000000000000000000000000003
:107D800000000000000000000000000000000000F3
:107D900000000000000000000000000000000000E3
:107DA00000000000000000000000000000000002D1
:107DB00002020202020202020101010101010000AD
:107DC00000000000000000000000010101010100AE
:107DD00000000000000000000000000000000000A3
:107DE0000000000000000000000000000000000093
:107DF0000000000000000000000000000000000083
:107E00000000000000000000000000000000000072
:107E10000000000000000000000000000000000062
:107E20000000000000000000000000000000000052
:107E30000000000000000000000000000000000042
:107E40000000000000000000000000000000000032
:107E50000000000000000000000000000000000022
:107E60000000000000000000000000000000000012
:107E70000000000000000000000000000000000002
:107E800000000000000000000000000000000000F2
:107E900000000000000000000000000000000000E2
:107EA00000000000000000000000000000000002D0
:107EB00002020202020202020201010101010000AB
:107EC00000000000000000000001010101010100AC
:107ED00000000000000000000000000000000000A2
:107EE0000000000000000000000000000000000092
:107EF0000000000000000000000000000000000082
:107F00000000000000000000000000000000000071
:107F10000000000000000000000000000000000061
:107F20000000000000000000000000000000000051
:107F30000000000000000000000000000000000041
:107F40000000000000000000000000000000000031
:107F50000000000000000000000000000000000021
:107F60000000000000000000000000000000000011
:107F70000000000000000000000000000000000001
:107F800000000000000000000000000000000000F1
:107F900000000000000000000000000000000000E1
:107FA00000000000000000000000000000000002CF
:107FB00002020202020202020202010101010000A9
:107FC00000000000000000000001010101010100AB
:107FD00000000000000000000000000000000000A1
:107FE0000000000000000000000000000000000091
:107FF0000000000000000000000000000000000081
:108000000000000000000000000000000000000070
:108010000000000000000000000000000000000060
:108020000000000000000000000000000000000050
:108030000000000000000000000000000000000040
:108040000000000000000000000000000000000030
:108050000000000000000000000000000000000020
:108060000000000000000000000000000000000010
:108070000000000000000000000000000000000000
:1080800000000000000000000000000000000000F0
:1080900000000000000000000000000000000000E0
:1080A00000000000000000000000000000000002CE
:1080B00002020202020202020202010101010000A8
:1080C00000000000000000000001010101010100AA
:1080D00000000000000000000000000000000000A0
:1080E0000000000000000000000000000000000090
:1080F0000000000000000000000000000000000080
:10810000000000000000000000000000000000006F
:10811000000000000000000000000000000000005F
:10812000000000000000000000000000000000004F
:10813000000000000000000000000000000000003F
:10814000000000000000000000000000000000002F
:10815000000000000000000000000000000000001F
:10816000000000000000000000000000000000000F
:1081700000000000000000000000000000000000FF
:1081800000000000000000000000000000000000EF
:1081900000000000000000000000000000000000DF
:1081A00000000000000000000000000000000002CD
:1081B00002020202020202020202020101010000A6
:1081C00000000000000000000101010101010100A8
:1081D000000000000000000000000000000000009F
:1081E000000000000000000000000000000000008F
:1081F000000000000000000000000000000000007F
:10820000000000000000000000000000000000006E
:10821000000000000000000000000000000000005E
:10822000000000000000000000000000000000004E
:10823000000000000000000000000000000000003E
:10824000000000000000000000000000000000002E
:10825000000000000000000000000000000000001E
:10826000000000000000000000000000000000000E
:1082700000000000000000000000000000000000FE
:1082800000000000000000000000000000000000EE
:1082900000000000000000000000000000000000DE
:1082A00000000000000000000000000000000002CC
:1082B00002020202020202020202020201010000A4
:1082C00000000000000000000101010101010100A7
:1082D000000000000000000000000000000000009E
:1082E000000000000000000000000000000000008E
:1082F000000000000000000000000000000000007E
:10830000000000000000000000000000000000006D
:10831000000000000000000000000000000000005D
:10832000000000000000000000000000000000004D
:10833000000000000000000000000000000000003D
:10834000000000000000000000000000000000002D
:10835000000000000000000000000000000000001D
:10836000000000000000000000000000000000000D
:1083700000000000000000000000000000000000FD
:1083800000000000000000000000000000000000ED
:1083900000000000000000000000000000000000DD
:1083A00000000000000000000000000000000002CB
:1083B00002020202020202020202020202010000A2
:1083C00000000000000000000101010101010100A6
:1083D000000000000000000000000000000000009D
:1083E000000000000000000000000000000000008D
:1083F000000000000000000000000000000000007D
:10840000000000000000000000000000000000006C
:10841000000000000000000000000000000000005C
:10842000000000000000000000000000000000004C
:10843000000000000000000000000000000000003C
:10844000000000000000000000000000000000002C
:10845000000000000000000000000000000000001C
:10846000000000000000000000000000000000000C
:1084700000000000000000000000000000000000FC
:1084800000000000000000000000000000000000EC
:1084900000000000000000000000000000000000DC
:1084A00000000000000000000000000000000002CA
:1084B00002020202020202020202020202010000A1
:1084C00000000000000000010101010101010100A4
:1084D000000000000000000000000000000000009C
:1084E000000000000000000000000000000000008C
:1084F000000000000000000000000000000000007C
:10850000000000000000000000000000000000006B
:10851000000000000000000000000000000000005B
:10852000000000000000000000000000000000004B
:10853000000000000000000000000000000000003B
:10854000000000000000000000000000000000002B
:10855000000000000000000000000000000000001B
:10856000000000000000000000000000000000000B
:1085700000000000000000000000000000000000FB
:1085800000000000000000000000000000000000EB
:1085900000000000000000000000000000000000DB
:1085A00000000000000000000000000000000002C9
:1085B00002020202020202020202020202010000A0
:1085C00000000000000000010101010101010100A3
:1085D000000000000000000000000000000000009B
:1085E000000000000000000000000000000000008B
:1085F000000000000000000000000000000000007B
:10860000000000000000000000000000000000006A
:10861000000000000000000000000000000000005A
:10862000000000000000000000000000000000004A
:10863000000000000000000000000000000000003A
:10864000000000000000000000000000000000002A
:10865000000000000000000000000000000000001A
:10866000000000000000000000000000000000000A
:1086700000000000000000000000000000000000FA
:1086800000000000000000000000000000000000EA
:1086900000000000000000000000000000000000DA
:1086A00000000000000000000000000000000002C8
:1086B000020202020202020202020202020200009E
:1086C00000000000000101010101010101010100A0
:1086D000000000000000000000000000000000009A
:1086E000000000000000000000000000000000008A
:1086F000000000000000000000000000000000007A
:108700000000000000000000000000000000000069
:108710000000000000000000000000000000000059
:108720000000000000000000000000000000000049
:108730000000000000000000000000000000000039
:108740000000000000000000000000000000000029
:108750000000000000000000000000000000000019
:108760000000000000000000000000000000000009
:1087700000000000000000000000000000000000F9
:1087800000000000000000000000000000000000E9
:1087900000000000000000000000000000000000D9
:1087A00000000000000000000000000000000002C7
:1087B000020202020202020202020202020200009D
:1087C000000000000001010101010101010101009F
:1087D0000000000000000000000000000000000099
:1087E0000000000000000000000000000000000089
:1087F0000000000000000000000000000000000079
:108800000000000000000000000000000000000068
:108810000000000000000000000000000000000058
:108820000000000000000000000000000000000048
:108830000000000000000000000000000000000038
:108840000000000000000000000000000000000028
:108850000000000000000000000000000000000018
:108860000000000000000000000000000000000008
:1088700000000000000000000000000000000000F8
:1088800000000000000000000000000000000000E8
:1088900000000000000000000000000000000000D8
:1088A00000000000000000000000000000000002C6
:1088B000020202020202020202020202020200009C
:1088C000000000000001010101010101010101009E
:1088D0000000000000000000000000000000000098
:1088E0000000000000000000000000000000000088
:1088F0000000000000000000000000000000000078
:108900000000000000000000000000000000000067
:108910000000000000000000000000000000000057
:108920000000000000000000000000000000000047
:108930000000000000000000000000000000000037
:108940000000000000000000000000000000000027
:108950000000000000000000000000000000000017
:108960000000000000000000000000000000000007
:1089700000000000000000000000000000000000F7
:1089800000000000000000000000000000000000E7
:1089900000000000000000000000000000000000D7
:1089A00000000000000000000000000000000002C5
:1089B000020202020202020202020202020200009B
:1089C000000000000001010101010101010101009D
:1089D0000000000000000000000000000000000097
:1089E0000000000000000000000000000000000087
:1089F0000000000000000000000000000000000077
:108A00000000000000000000000000000000000066
:108A10000000000000000000000000000000000056
:108A20000000000000000000000000000000000046
:108A30000000000000000000000000000000000036
:108A40000000000000000000000000000000000026
:108A50000000000000000000000000000000000016
:108A60000000000000000000000000000000000006
:108A700000000000000000000000000000000000F6
:108A800000000000000000000000000000000000E6
:108A900000000000000000000000000000000000D6
:108AA00000000000000000000000000000000002C4
:108AB000020202020202020202020202020200009A
:108AC000000000000001010101010101010101009C
:108AD0000000000000000000000000000000000096
:108AE0000000000000000000000000000000000086
:108AF0000000000000000000000000000000000076
:108B00000000000000000000000000000000000065
:108B10000000000000000000000000000000000055
:108B20000000000000000000000000000000000045
:108B30000000000000000000000000000000000035
:108B40000000000000000000000000000000000025
:108B50000000000000000000000000000000000015
:108B60000000000000000000000000000000000005
:108B700000000000000000000000000000000000F5
:108B800000000000000000000000000000000000E5
:108B900000000000000000000000000000000000D5
:108BA00000000000000000000000000000000002C3
:108BB0000202020202020202020202020202000099
:108BC000000000000001010101010101010101009B
:108BD0000000000000000000000000000000000095
:108BE0000000000000000000000000000000000085
:108BF0000000000000000000000000000000000075
:108C00000000000000000000000000000000000064
:108C10000000000000000000000000000000000054
:108C20000000000000000000000000000000000044
:108C30000000000000000000000000000000000034
:108C40000000000000000000000000000000000024
:108C50000000000000000000000000000000000014
:108C60000000000000000000000000000000000004
:108C700000000000000000000000000000000000F4
:108C800000000000000000000000000000000000E4
:108C900000000000000000000000000000000000D4
:108CA00000000000000000000000000000000002C2
:108CB0000202020202020202020202020202000098
:108CC0000000000001010101010101010101010099
:108CD0000000000000000000000000000000000094
:108CE0000000000000000000000000000000000084
:108CF0000000000000000000000000000000000074
:108D00000000000000000000000000000000000063
:108D10000000000000000000000000000000000053
:108D20000000000000000000000000000000000043
:108D30000000000000000000000000000000000033
:108D40000000000000000000000000000000000023
:108D50000000000000000000000000000000000013
:108D60000000000000000000000000000000000003
:108D700000000000000000000000000000000000F3
:108D800000000000000000000000000000000000E3
:108D900000000000000000000000000000000000D3
:108DA00000000000000000000000000000000002C1
:108DB0000202020202020202020202020202000097
:108DC0000000000001010101010101010101010098
:108DD0000000000000000000000000000000000093
:108DE0000000000000000000000000000000000083
:108DF0000000000000000000000000000000000073
:108E00000000000000000000000000000000000062
:108E10000000000000000000000000000000000052
:108E20000000000000000000000000000000000042
:108E30000000000000000000000000000000000032
:108E40000000000000000000000000000000000022
:108E50000000000000000000000000000000000012
:108E60000000000000000000000000000000000002
:108E700000000000000000000000000000000000F2
:108E800000000000000000000000000000000000E2
:108E900000000000000000000000000000000000D2
:108EA00000000000000000000000000000000002C0
:108EB0000202020202020202020202020202000096
:108EC0000000000001010101010101010101010097
:108ED0000000000000000000000000000000000092
:108EE0000000000000000000000000000000000082
:108EF0000000000000000000000000000000000072
:108F00000000000000000000000000000000000061
:108F10000000000000000000000000000000000051
:108F20000000000000000000000000000000000041
:108F30000000000000000000000000000000000031
:108F40000000000000000000000000000000000021
:108F50000000000000000000000000000000000011
:108F60000000000000000000000000000000000001
:108F700000000000000000000000000000000000F1
:108F800000000000000000000000000000000000E1
:108F900000000000000000000000000000000000D1
:108FA00000000000000000000000000000000002BF
:108FB0000202020202020202020202020202000095
:108FC0000000000001010101010101010101010096
:108FD0000000000000000000000000000000000091
:108FE0000000000000000000000000000000000081
:108FF0000000000000000000000000000000000071
:109000000000000000000000000000000000000060
:109010000000000000000000000000000000000050
:109020000000000000000000000000000000000040
:109030000000000000000000000000000000000030
:109040000000000000000000000000000000000020
:109050000000000000000000000000000000000010
:109060000000000000000000000000000000000000
:1090700000000000000000000000000000000000F0
:1090800000000000000000000000000000000000E0
:1090900000000000000000000000000000000000D0
:1090A00000000000000000000000000000000002BE
:1090B0000202020202020202020202020202000094
:1090C0000000000001010101010101010101010095
:1090D0000000000000000000000000000000000090
:1090E0000000000000000000000000000000000080
:1090F0000000000000000000000000000000000070
:10910000000000000000000000000000000000005F
:10911000000000000000000000000000000000004F
:10912000000000000000000000000000000000003F
:10913000000000000000000000000000000000002F
:10914000000000000000000000000000000000001F
:10915000000000000000000000000000000000000F
:1091600000000000000000000000000000000000FF
:1091700000000000000000000000000000000000EF
:1091800000000000000000000000000000000000DF
:1091900000000000000000000000000000000000CF
:1091A00000000000000000000000000000000002BD
:1091B0000202020202020202020202020202000093
:1091C0000000000001010101010101010101010094
:1091D000000000000000000000000000000000008F
:1091E000000000000000000000000000000000007F
:1091F000000000000000000000000000000000006F
:10920000000000000000000000000000000000005E
:10921000000000000000000000000000000000004E
:10922000000000000000000000000000000000003E
:10923000000000000000000000000000000000002E
:10924000000000000000000000000000000000001E
:10925000000000000000000000000000000000000E
:1092600000000000000000000000000000000000FE
:1092700000000000000000000000000000000000EE
:1092800000000000000000000000000000000000DE
:1092900000000000000000000000000000000000CE
:1092A00000000000000000000000000000000002BC
:1092B0000202020202020202020202020202000092
:1092C0000000000101010101010101010101010092
:1092D000000000000000000000000000000000008E
:1092E000000000000000000000000000000000007E
:1092F000000000000000000000000000000000006E
:10930000000000000000000000000000000000005D
:10931000000000000000000000000000000000004D
:10932000000000000000000000000000000000003D
:10933000000000000000000000000000000000002D
:10934000000000000000000000000000000000001D
:10935000000000000000000000000000000000000D
:1093600000000000000000000000000000000000FD
:1093700000000000000000000000000000000000ED
:1093800000000000000000000000000000000000DD
:1093900000000000000000000000000000000000CD
:1093A00000000000000000000000000000000002BB
:1093B0000202020202020202020202020202000091
:1093C0000000000101010101010101010101010091
:1093D000000000000000000000000000000000008D
:1093E000000000000000000000000000000000007D
:1093F000000000000000000000000000000000006D
:10940000000000000000000000000000000000005C
:10941000000000000000000000000000000000004C
:10942000000000000000000000000000000000003C
:10943000000000000000000000000000000000002C
:10944000000000000000000000000000000000001C
:10945000000000000000000000000000000000000C
:1094600000000000000000000000000000000000FC
:1094700000000000000000000000000000000000EC
:1094800000000000000000000000000000000000DC
:1094900000000000000000000000000000000000CC
:1094A00000000000000000000000000000000002BA
:1094B0000202020202020202020202020202000090
:1094C000000001010101010101010101010101008F
:1094D000000000000000000000000000000000008C
:1094E000000000000000000000000000000000007C
:1094F000000000000000000000000000000000006C
:10950000000000000000000000000000000000005B
:10951000000000000000000000000000000000004B
:10952000000000000000000000000000000000003B
:10953000000000000000000000000000000000002B
:10954000000000000000000000000000000000001B
:10955000000000000000000000000000000000000B
:1095600000000000000000000000000000000000FB
:1095700000000000000000000000000000000000EB
:1095800000000000000000000000000000000000DB
:1095900000000000000000000000000000000000CB
:1095A00000000000000000000000000000000002B9
:1095B000020202020202020202020202020200008F
:1095C000000001010101010101010101010101008E
:1095D000000000000000000000000000000000008B
:1095E000000000000000000000000000000000007B
:1095F000000000000000000000000000000000006B
:10960000000000000000000000000000000000005A
:10961000000000000000000000000000000000004A
:10962000000000000000000000000000000000003A
:10963000000000000000000000000000000000002A
:10964000000000000000000000000000000000001A
:10965000000000000000000000000000000000000A
:1096600000000000000000000000000000000000FA
:1096700000000000000000000000000000000000EA
:1096800000000000000000000000000000000000DA
:1096900000000000000000000000000000000000CA
:1096A00000000000000000000000000000000002B8
:1096B000020202020202020202020202020200008E
:1096C000000001010101010101010101010101008D
:1096D000000000000000000000000000000000008A
:1096E000000000000000000000000000000000007A
:1096F000000000000000000000000000000000006A
:109700000000000000000000000000000000000059
:109710000000000000000000000000000000000049
:109720000000000000000000000000000000000039
:109730000000000000000000000000000000000029
:109740000000000000000000000000000000000019
:109750000000000000000000000000000000000009
:1097600000000000000000000000000000000000F9
:1097700000000000000000000000000000000000E9
:1097800000000000000000000000000000000000D9
:1097900000000000000000000000000000000000C9
:1097A00000000000000000000000000000000002B7
:1097B000020202020202020202020202020200008D
:1097C000000001010101010101010101010101008C
:1097D0000000000000000000000000000000000089
:1097E0000000000000000000000000000000000079
:1097F0000000000000000000000000000000000069
:109800000000000000000000000000000000000058
:109810000000000000000000000000000000000048
:109820000000000000000000000000000000000038
:109830000000000000000000000000000000000028
:109840000000000000000000000000000000000018
:109850000000000000000000000000000000000008
:1098600000000000000000000000000000000000F8
:1098700000000000000000000000000000000000E8
:1098800000000000000000000000000000000000D8
:1098900000000000000000000000000000000000C8
:1098A00000000000000000000000000000000002B6
:1098B000020202020202020202020202020200008C
:1098C000000101010101010101010101010101008A
:1098D0000000000000000000000000000000000088
:1098E0000000000000000000000000000000000078
:1098F0000000000000000000000000000000000068
:109900000000000000000000000000000000000057
:109910000000000000000000000000000000000047
:109920000000000000000000000000000000000037
:109930000000000000000000000000000000000027
:109940000000000000000000000000000000000017
:109950000000000000000000000000000000000007
:1099600000000000000000000000000000000000F7
:1099700000000000000000000000000000000000E7
:1099800000000000000000000000000000000000D7
:1099900000000000000000000000000000000000C7
:1099A00000000000000000000000000000000002B5
:1099B000020202020202020202020202020200008B
:1099C0000001010101010101010101010101010089
:1099D0000000000000000000000000000000000087
:1099E0000000000000000000000000000000000077
:1099F0000000000000000000000000000000000067
:109A00000000000000000000000000000000000056
:109A10000000000000000000000000000000000046
:109A20000000000000000000000000000000000036
:109A30000000000000000000000000000000000026
:109A40000000000000000000000000000000000016
:109A50000000000000000000000000000000000006
:109A600000000000000000000000000000000000F6
:109A700000000000000000000000000000000000E6
:109A800000000000000000000000000000000000D6
:109A900000000000000000000000000000000000C6
:109AA00000000000000000000000000000000002B4
:109AB000020202020202020202020202020200008A
:109AC0000001010101010101010101010101010088
:109AD0000000000000000000000000000000000086
:109AE0000000000000000000000000000000000076
:109AF0000000000000000000000000000000000066
:109B00000000000000000000000000000000000055
:109B10000000000000000000000000000000000045
:109B20000000000000000000000000000000000035
:109B30000000000000000000000000000000000025
:109B40000000000000000000000000000000000015
:109B50000000000000000000000000000000000005
:109B600000000000000000000000000000000000F5
:109B700000000000000000000000000000000000E5
:109B800000000000000000000000000000000000D5
:109B900000000000000000000000000000000000C5
:109BA00000000000000000000000000000000002B3
:109BB0000202020202020202020202020202000089
:109BC0000001010101010101010101010101010087
:109BD0000000000000000000000000000000000085
:109BE0000000000000000000000000000000000075
:109BF0000000000000000000000000000000000065
:109C00000000000000000000000000000000000054
:109C10000000000000000000000000000000000044
:109C20000000000000000000000000000000000034
:109C30000000000000000000000000000000000024
:109C40000000000000000000000000000000000014
:109C50000000000000000000000000000000000004
:109C600000000000000000000000000000000000F4
:109C700000000000000000000000000000000000E4
:109C800000000000000000000000000000000000D4
:109C900000000000000000000000000000000000C4
:109CA00000000000000000000000000000000002B2
:109CB0000202020202020202020202020202000088
:109CC0000001010101010101010101010101010086
:109CD0000000000000000000000000000000000084
:109CE0000000000000000000000000000000000074
:109CF0000000000000000000000000000000000064
:109D00000000000000000000000000000000000053
:109D10000000000000000000000000000000000043
:109D20000000000000000000000000000000000033
:109D30000000000000000000000000000000000023
:109D40000000000000000000000000000000000013
:109D50000000000000000000000000000000000003
:109D600000000000000000000000000000000000F3
:109D700000000000000000000000000000000000E3
:109D800000000000000000000000000000000000D3
:109D900000000000000000000000000000000000C3
