:1000000095533B1702B60000B701000004042C0012
:100010000131020E6101010000000000410000D228
:100020004800000100030E00FFFC00000000005526
:10003000000306090C0F1215181B1E21262B303247
:10004000200000000000000010DE0600000000009C
:1000500000E9070000000000F0330B000000000082
:100060009800000000000000A089000000000000CF
:10007000A802010000000000B06F010000000000B5
:10008000B8DC010000000000C077020000000000A2
:10009000C806030000000000D07D0300000000003F
:1000A000D8FA030000000000E06B0400000000002C
:1000B000E8DE040000000000F04B05000000000036
:1000C000F8B2050000000000001C0600000000005F
:1000D000087F06000000000089000000000000000A
:1000E0000101010101010101010101010101010100
:1000F00001010101010101010101010101010101F0
:1001000001010101010101010101010101010101DF
:1001100001010101010101010101010101010101CF
:1089E0007900000000000000010101010101010106
:1089F0000101010101010101010101010101010167
:108A00000101010101010101010101010101010156
:108A10000101010101010101010101010101010146
:108A20000101010101010101010101010101010136
:10A2E0000101010101010101000000000000000066
:10A2F000000000000000000000000000000000005E
:10A30000000000000000000000000000000000004D
:10A31000000000000000000000000000000000003D
:10A32000000000000000000000000000000000002D
:10A6E0000000000000000000010101010101010162
:10A6F000010101010101010101010101010101014A
:10A700000101010101010101010101010101010139
:10A710000101010101010101010101010101010129
:10A720000101010101010101010101010101010119
:10A730000101010101010101010101010101010109
:10A7400001010101010101010101010101010101F9
:10A7500001010101010101010101010101010101E9
:10A7600001010101010101010101010101010101D9
:10A7700001010101010101010101010101010101C9
:10A7800001010101010101010101010101010101B9
:10A7900001010101010101010101010101010101A9
:10A7A0000101010101010101010101010101010199
:10A7B0000101010101010101010101010101010189
:10A7C0000101010101010101010101010101010179
:10A7D0000101010101010101010101010101010169
:10A7E0000101010101010101010101010101010159
:10A7F0000101010101010101010101010101010149
:10A800000101010101010101010101010101010138
:10A810000101010101010101010101010101010128
:10A820000101010101010101010101010101010118
:10A830000101010101010101010101010101010108
:10A8400001010101010101010101010101010101F8
:10A8500001010101010101010101010101010101E8
:10A8600001010101010101010101010101010101D8
:10A8700001010101010101010101010101010101C8
:10A8800001010101010101010101010101010101B8
:10A8900001010101010101010101010101010101A8
:10A8A0000101010101010101010101010101010198
:10A8B0000101010101010101010101010101010188
:10A8C0000101010101010101010101010101010178
:10A8D0000101010101010101010101010101010168
:10A8E0000101010101010101020202020202020250
:10A8F0000202020202020202020202020202020238
:10A900000202020202020202020202020202020227
:10A910000202020202020202020202020202020217
:10A920000202020202020202020202020202020207
:10C3E000020202020202020200000000000000003D
:10C3F000000000000000000000000000000000003D
:10C40000000000000000000000000000000000002C
:10C41000000000000000000000000000000000001C
:10C42000000000000000000000000000000000000C
:10C7E0000000000000000000010101010101010141
:10C7F0000101010101010101010101010101010129
:10C800000101010101010101010101010101010118
:10C810000101010101010101010101010101010108
:10C8200001010101010101010101010101010101F8
:10E0E0000101010101010101000000000000000028
:10E0F0000000000000000000000000000000000020
:10E10000000000000000000000000000000000000F
:10E1100000000000000000000000000000000000FF
:10E1200000000000000000000000000000000000EF
:10E4E0000000000000000000010101010101010124
:10E4F000010101010101010101010101010101010C
:10E5000001010101010101010101010101010101FB
:10E5100001010101010101010101010101010101EB
:10E5200001010101010101010101010101010101DB
:10E5300001010101010101010101010101010101CB
:10E5400001010101010101010101010101010101BB
:10E5500001010101010101010101010101010101AB
:10E56000010101010101010101010101010101019B
:10E57000010101010101010101010101010101018B
:10E58000010101010101010101010101010101017B
:10E59000010101010101010101010101010101016B
:10E5A000010101010101010101010101010101015B
:10E5B000010101010101010101010101010101014B
:10E5C000010101010101010101010101010101013B
:10E5D000010101010101010101010101010101012B
:10E5E000010101010101010101010101010101011B
:10E5F000010101010101010101010101010101010B
:10E6000001010101010101010101010101010101FA
:10E6100001010101010101010101010101010101EA
:10E6200001010101010101010101010101010101DA
:10E6300001010101010101010101010101010101CA
:10E6400001010101010101010101010101010101BA
:10E6500001010101010101010101010101010101AA
:10E66000010101010101010101010101010101019A
:10E67000010101010101010101010101010101018A
:10E68000010101010101010101010101010101017A
:10E69000010101010101010101010101010101016A
:10E6A000010101010101010101010101010101015A
:10E6B000010101010101010101010101010101014A
:10E6C000010101010101010101010101010101013A
:10E6D000010101010101010101010101010101012A
:10E6E0000101010101010101020202020202020212
:10E6F00002020202020202020202020202020202FA
:10E7000002020202020202020202020202020202E9
:10E7100002020202020202020202020202020202D9
:10E7200002020202020202020202020202020202C9
:020000021000EC
:1001E00002020202020202020000000000000000FF
:1001F00000000000000000000000000000000000FF
:1002000000000000000000000000000000000000EE
:1002100000000000000000000000000000000000DE
:1002200000000000000000000000000000000000CE
:1002300000000000000000000000000000000000BE
:1002400000000000000000000000000000000000AE
:10025000000000000000000000000000000000009E
:10026000000000000000000000000000000000008E
:10027000000000000000000000000000000000007E
:10028000000000000000000000000000000000006E
:10029000000000000000000000000000000000005E
:1002A000000000000000000000000000000000004E
:1002B000000000000000000000000000000000003E
:1002C000000000000000000000000000000000002E
:1002D000000000000000000000000000000000001E
:1002E00000000000000000006D00000000000000A1
:1002F00001010101010101010101010101010101EE
:1003000001010101010101010101010101010101DD
:1003100001010101010101010101010101010101CD
:1003200001010101010101010101010101010101BD
:106FF0006D0000000000000001010101010101011C
:107000000101010101010101010101010101010170
:107010000101010101010101010101010101010160
:107020000101010101010101010101010101010150
:107030000101010101010101010101010101010140
:1085F0000101010101010101000000000000000073
:10860000000000000000000000000000000000006A
:10861000000000000000000000000000000000005A
:10862000000000000000000000000000000000004A
:10863000000000000000000000000000000000003A
:1089F000000000000000000001010101010101016F
:108A00000101010101010101010101010101010156
:108A10000101010101010101010101010101010146
:108A20000101010101010101010101010101010136
:108A30000101010101010101010101010101010126
:108A40000101010101010101010101010101010116
:108A50000101010101010101010101010101010106
:108A600001010101010101010101010101010101F6
:108A700001010101010101010101010101010101E6
:108A800001010101010101010101010101010101D6
:108A900001010101010101010101010101010101C6
:108AA00001010101010101010101010101010101B6
:108AB00001010101010101010101010101010101A6
:108AC0000101010101010101010101010101010196
:108AD0000101010101010101010101010101010186
:108AE0000101010101010101010101010101010176
:108AF0000101010101010101010101010101010166
:108B00000101010101010101010101010101010155
:108B10000101010101010101010101010101010145
:108B20000101010101010101010101010101010135
:108B30000101010101010101010101010101010125
:108B40000101010101010101010101010101010115
:108B50000101010101010101010101010101010105
:108B600001010101010101010101010101010101F5
:108B700001010101010101010101010101010101E5
:108B800001010101010101010101010101010101D5
:108B900001010101010101010101010101010101C5
:108BA00001010101010101010101010101010101B5
:108BB00001010101010101010101010101010101A5
:108BC0000101010101010101010101010101010195
:108BD0000101010101010101010101010101010185
:108BE0000101010101010101010101010101010175
:108BF000010101010101010102020202020202025D
:108C00000202020202020202020202020202020244
:108C10000202020202020202020202020202020234
:108C20000202020202020202020202020202020224
:108C30000202020202020202020202020202020214
:10A3F000020202020202020200000000000000004D
:10A40000000000000000000000000000000000004C
:10A41000000000000000000000000000000000003C
:10A42000000000000000000000000000000000002C
:10A43000000000000000000000000000000000001C
:10A7F0000000000000000000010101010101010151
:10A800000101010101010101010101010101010138
:10A810000101010101010101010101010101010128
:10A820000101010101010101010101010101010118
:10A830000101010101010101010101010101010108
:10BDF000010101010101010100000000000000003B
:10BE00000000000000000000000000000000000032
:10BE10000000000000000000000000000000000022
:10BE20000000000000000000000000000000000012
:10BE30000000000000000000000000000000000002
:10C1F0000000000000000000010101010101010137
:10C20000010101010101010101010101010101011E
:10C21000010101010101010101010101010101010E
:10C2200001010101010101010101010101010101FE
:10C2300001010101010101010101010101010101EE
:10C2400001010101010101010101010101010101DE
:10C2500001010101010101010101010101010101CE
:10C2600001010101010101010101010101010101BE
:10C2700001010101010101010101010101010101AE
:10C28000010101010101010101010101010101019E
:10C29000010101010101010101010101010101018E
:10C2A000010101010101010101010101010101017E
:10C2B000010101010101010101010101010101016E
:10C2C000010101010101010101010101010101015E
:10C2D000010101010101010101010101010101014E
:10C2E000010101010101010101010101010101013E
:10C2F000010101010101010101010101010101012E
:10C30000010101010101010101010101010101011D
:10C31000010101010101010101010101010101010D
:10C3200001010101010101010101010101010101FD
:10C3300001010101010101010101010101010101ED
:10C3400001010101010101010101010101010101DD
:10C3500001010101010101010101010101010101CD
:10C3600001010101010101010101010101010101BD
:10C3700001010101010101010101010101010101AD
:10C38000010101010101010101010101010101019D
:10C39000010101010101010101010101010101018D
:10C3A000010101010101010101010101010101017D
:10C3B000010101010101010101010101010101016D
:10C3C000010101010101010101010101010101015D
:10C3D000010101010101010101010101010101014D
:10C3E000010101010101010101010101010101013D
:10C3F0000101010101010101020202020202020225
:10C40000020202020202020202020202020202020C
:10C4100002020202020202020202020202020202FC
:10C4200002020202020202020202020202020202EC
:10C4300002020202020202020202020202020202DC
:10DBF0000202020202020202000000000000000015
:10DC00000000000000000000000000000000000014
:10DC10000000000000000000000000000000000004
:10DC200000000000000000000000000000000000F4
:10DC300000000000000000000000000000000000E4
:10DC400000000000000000000000000000000000D4
:10DC500000000000000000000000000000000000C4
:10DC600000000000000000000000000000000000B4
:10DC700000000000000000000000000000000000A4
:10DC80000000000000000000000000000000000094
:10DC90000000000000000000000000000000000084
:10DCA0000000000000000000000000000000000074
:10DCB0000000000000000000000000000000000064
:10DCC0000000000000000000000000000000000054
:10DCD0000000000000000000000000000000000044
:10DCE0000000000000000000000000000000000034
:10DCF00000000000000000009B0000000000000089
:10DD00000101010101010101010101010101010103
:10DD100001010101010101010101010101010101F3
:10DD200001010101010101010101010101010101E3
:10DD300001010101010101010101010101010101D3
:020000022000DC
:107800008F000000000000000101010101010101E1
:107810000101010101010101010101010101010158
:107820000101010101010101010101010101010148
:107830000101010101010101010101010101010138
:107840000101010101010101010101010101010128
:108100000101010101010101000000000000000067
:10811000000000000000000000000000000000005F
:10812000000000000000000000000000000000004F
:10813000000000000000000000000000000000003F
:10814000000000000000000000000000000000002F
:109200000000000000000000010101010101010156
:10921000010101010101010101010101010101013E
:10922000010101010101010101010101010101012E
:10923000010101010101010101010101010101011E
:10924000010101010101010101010101010101010E
:109B0000010101010101010100000000000000004D
:109B10000000000000000000000000000000000045
:109B20000000000000000000000000000000000035
:109B30000000000000000000000000000000000025
:109B40000000000000000000000000000000000015
:10A000000000000000000000010101010101010148
:10A010000101010101010101010101010101010130
:10A020000101010101010101010101010101010120
:10A030000101010101010101010101010101010110
:10A040000101010101010101010101010101010100
:10A0500001010101010101010101010101010101F0
:10A0600001010101010101010101010101010101E0
:10A0700001010101010101010101010101010101D0
:10A0800001010101010101010101010101010101C0
:10A0900001010101010101010101010101010101B0
:10A0A00001010101010101010101010101010101A0
:10A0B0000101010101010101010101010101010190
:10A0C0000101010101010101010101010101010180
:10A0D0000101010101010101010101010101010170
:10A0E0000101010101010101010101010101010160
:10A0F0000101010101010101010101010101010150
:10A10000010101010101010101010101010101013F
:10A11000010101010101010101010101010101012F
:10A12000010101010101010101010101010101011F
:10A13000010101010101010101010101010101010F
:10A1400001010101010101010101010101010101FF
:10A1500001010101010101010101010101010101EF
:10A1600001010101010101010101010101010101DF
:10A1700001010101010101010101010101010101CF
:10A1800001010101010101010101010101010101BF
:10A1900001010101010101010101010101010101AF
:10A1A000010101010101010101010101010101019F
:10A1B000010101010101010101010101010101018F
:10A1C000010101010101010101010101010101017F
:10A1D000010101010101010101010101010101016F
:10A1E000010101010101010101010101010101015F
:10A1F000010101010101010101010101010101014F
:10A200000101010101010101020202020202020236
:10A21000020202020202020202020202020202021E
:10A22000020202020202020202020202020202020E
:10A2300002020202020202020202020202020202FE
:10A2400002020202020202020202020202020202EE
:10B60000020202020202020200000000000000002A
:10B61000000000000000000000000000000000002A
:10B62000000000000000000000000000000000001A
:10B63000000000000000000000000000000000000A
:10B6400000000000000000000000000000000000FA
:10C100000000000000000000010101010101010127
:10C11000010101010101010101010101010101010F
:10C1200001010101010101010101010101010101FF
:10C1300001010101010101010101010101010101EF
:10C1400001010101010101010101010101010101DF
:10CA0000010101010101010100000000000000001E
:10CA10000000000000000000000000000000000016
:10CA20000000000000000000000000000000000006
:10CA300000000000000000000000000000000000F6
:10CA400000000000000000000000000000000000E6
:10DB0000000000000000000001010101010101010D
:10DB100001010101010101010101010101010101F5
:10DB200001010101010101010101010101010101E5
:10DB300001010101010101010101010101010101D5
:10DB400001010101010101010101010101010101C5
:10E400000101010101010101000000000000000004
:10E4100000000000000000000000000000000000FC
:10E4200000000000000000000000000000000000EC
:10E4300000000000000000000000000000000000DC
:10E4400000000000000000000000000000000000CC
:10E9000000000000000000000101010101010101FF
:10E9100001010101010101010101010101010101E7
:10E9200001010101010101010101010101010101D7
:10E9300001010101010101010101010101010101C7
:10E9400001010101010101010101010101010101B7
:10E9500001010101010101010101010101010101A7
:10E960000101010101010101010101010101010197
:10E970000101010101010101010101010101010187
:10E980000101010101010101010101010101010177
:10E990000101010101010101010101010101010167
:10E9A0000101010101010101010101010101010157
:10E9B0000101010101010101010101010101010147
:10E9C0000101010101010101010101010101010137
:10E9D0000101010101010101010101010101010127
:10E9E0000101010101010101010101010101010117
:10E9F0000101010101010101010101010101010107
:10EA000001010101010101010101010101010101F6
:10EA100001010101010101010101010101010101E6
:10EA200001010101010101010101010101010101D6
:10EA300001010101010101010101010101010101C6
:10EA400001010101010101010101010101010101B6
:10EA500001010101010101010101010101010101A6
:10EA60000101010101010101010101010101010196
:10EA70000101010101010101010101010101010186
:10EA80000101010101010101010101010101010176
:10EA90000101010101010101010101010101010166
:10EAA0000101010101010101010101010101010156
:10EAB0000101010101010101010101010101010146
:10EAC0000101010101010101010101010101010136
:10EAD0000101010101010101010101010101010126
:10EAE0000101010101010101010101010101010116
:10EAF0000101010101010101010101010101010106
:10EB000001010101010101010202020202020202ED
:10EB100002020202020202020202020202020202D5
:10EB200002020202020202020202020202020202C5
:10EB300002020202020202020202020202020202B5
:10EB400002020202020202020202020202020202A5
:10FF000002020202020202020000000000000000E1
:10FF100000000000000000000000000000000000E1
:10FF200000000000000000000000000000000000D1
:10FF300000000000000000000000000000000000C1
:10FF400000000000000000000000000000000000B1
:020000023000CC
:100700000000000000000000770000000000000072
:1007100001010101010101010101010101010101C9
:1007200001010101010101010101010101010101B9
:1007300001010101010101010101010101010101A9
:100740000101010101010101010101010101010199
:107E10007D000000000000000101010101010101DD
:107E20000101010101010101010101010101010142
:107E30000101010101010101010101010101010132
:107E40000101010101010101010101010101010122
:107E50000101010101010101010101010101010112
:108510000101010101010101000000000000000053
:10852000000000000000000000000000000000004B
:10853000000000000000000000000000000000003B
:10854000000000000000000000000000000000002B
:10855000000000000000000000000000000000001B
:109310000000000000000000010101010101010145
:10932000010101010101010101010101010101012D
:10933000010101010101010101010101010101011D
:10934000010101010101010101010101010101010D
:1093500001010101010101010101010101010101FD
:109B1000010101010101010100000000000000003D
:109B20000000000000000000000000000000000035
:109B30000000000000000000000000000000000025
:109B40000000000000000000000000000000000015
:109B50000000000000000000000000000000000005
:10A210000000000000000000010101010101010136
:10A22000010101010101010101010101010101011E
:10A23000010101010101010101010101010101010E
:10A2400001010101010101010101010101010101FE
:10A2500001010101010101010101010101010101EE
:10A2600001010101010101010101010101010101DE
:10A2700001010101010101010101010101010101CE
:10A2800001010101010101010101010101010101BE
:10A2900001010101010101010101010101010101AE
:10A2A000010101010101010101010101010101019E
:10A2B000010101010101010101010101010101018E
:10A2C000010101010101010101010101010101017E
:10A2D000010101010101010101010101010101016E
:10A2E000010101010101010101010101010101015E
:10A2F000010101010101010101010101010101014E
:10A30000010101010101010101010101010101013D
:10A31000010101010101010101010101010101012D
:10A32000010101010101010101010101010101011D
:10A33000010101010101010101010101010101010D
:10A3400001010101010101010101010101010101FD
:10A3500001010101010101010101010101010101ED
:10A3600001010101010101010101010101010101DD
:10A3700001010101010101010101010101010101CD
:10A3800001010101010101010101010101010101BD
:10A3900001010101010101010101010101010101AD
:10A3A000010101010101010101010101010101019D
:10A3B000010101010101010101010101010101018D
:10A3C000010101010101010101010101010101017D
:10A3D000010101010101010101010101010101016D
:10A3E000010101010101010101010101010101015D
:10A3F000010101010101010101010101010101014D
:10A40000010101010101010101010101010101013C
:10A410000101010101010101020202020202020224
:10A42000020202020202020202020202020202020C
:10A4300002020202020202020202020202020202FC
:10A4400002020202020202020202020202020202EC
:10A4500002020202020202020202020202020202DC
:10B51000020202020202020200000000000000001B
:10B52000000000000000000000000000000000001B
:10B53000000000000000000000000000000000000B
:10B5400000000000000000000000000000000000FB
:10B5500000000000000000000000000000000000EB
:10BE1000000000000000000001010101010101011A
:10BE20000101010101010101010101010101010102
:10BE300001010101010101010101010101010101F2
:10BE400001010101010101010101010101010101E2
:10BE500001010101010101010101010101010101D2
:10C510000101010101010101000000000000000013
:10C52000000000000000000000000000000000000B
:10C5300000000000000000000000000000000000FB
:10C5400000000000000000000000000000000000EB
:10C5500000000000000000000000000000000000DB
:10D310000000000000000000010101010101010105
:10D3200001010101010101010101010101010101ED
:10D3300001010101010101010101010101010101DD
:10D3400001010101010101010101010101010101CD
:10D3500001010101010101010101010101010101BD
:10DB100001010101010101010000000000000000FD
:10DB200000000000000000000000000000000000F5
:10DB300000000000000000000000000000000000E5
:10DB400000000000000000000000000000000000D5
:10DB500000000000000000000000000000000000C5
:10E2100000000000000000000101010101010101F6
:10E2200001010101010101010101010101010101DE
:10E2300001010101010101010101010101010101CE
:10E2400001010101010101010101010101010101BE
:10E2500001010101010101010101010101010101AE
:10E26000010101010101010101010101010101019E
:10E27000010101010101010101010101010101018E
:10E28000010101010101010101010101010101017E
:10E29000010101010101010101010101010101016E
:10E2A000010101010101010101010101010101015E
:10E2B000010101010101010101010101010101014E
:10E2C000010101010101010101010101010101013E
:10E2D000010101010101010101010101010101012E
:10E2E000010101010101010101010101010101011E
:10E2F000010101010101010101010101010101010E
:10E3000001010101010101010101010101010101FD
:10E3100001010101010101010101010101010101ED
:10E3200001010101010101010101010101010101DD
:10E3300001010101010101010101010101010101CD
:10E3400001010101010101010101010101010101BD
:10E3500001010101010101010101010101010101AD
:10E36000010101010101010101010101010101019D
:10E37000010101010101010101010101010101018D
:10E38000010101010101010101010101010101017D
:10E39000010101010101010101010101010101016D
:10E3A000010101010101010101010101010101015D
:10E3B000010101010101010101010101010101014D
:10E3C000010101010101010101010101010101013D
:10E3D000010101010101010101010101010101012D
:10E3E000010101010101010101010101010101011D
:10E3F000010101010101010101010101010101010D
:10E4000001010101010101010101010101010101FC
:10E4100001010101010101010202020202020202E4
:10E4200002020202020202020202020202020202CC
:10E4300002020202020202020202020202020202BC
:10E4400002020202020202020202020202020202AC
:10E45000020202020202020202020202020202029C
:10F5100002020202020202020000000000000000DB
:10F5200000000000000000000000000000000000DB
:10F5300000000000000000000000000000000000CB
:10F5400000000000000000000000000000000000BB
:10F5500000000000000000000000000000000000AB
:10FB10000000000000000000710000000000000074
:10FB200001010101010101010101010101010101C5
:10FB300001010101010101010101010101010101B5
:10FB400001010101010101010101010101010101A5
:10FB50000101010101010101010101010101010195
:020000024000BC
:106C200073000000000000000101010101010101E9
:106C30000101010101010101010101010101010144
:106C40000101010101010101010101010101010134
:106C50000101010101010101010101010101010124
:106C60000101010101010101010101010101010114
:107320000101010101010101000000000000000055
:10733000000000000000000000000000000000004D
:10734000000000000000000000000000000000003D
:10735000000000000000000000000000000000002D
:10736000000000000000000000000000000000001D
:108220000000000000000000010101010101010146
:10823000010101010101010101010101010101012E
:10824000010101010101010101010101010101011E
:10825000010101010101010101010101010101010E
:1082600001010101010101010101010101010101FE
:10892000010101010101010100000000000000003F
:108930000000000000000000000000000000000037
:108940000000000000000000000000000000000027
:108950000000000000000000000000000000000017
:108960000000000000000000000000000000000007
:108D2000000000000000000001010101010101013B
:108D30000101010101010101010101010101010123
:108D40000101010101010101010101010101010113
:108D50000101010101010101010101010101010103
:108D600001010101010101010101010101010101F3
:108D700001010101010101010101010101010101E3
:108D800001010101010101010101010101010101D3
:108D900001010101010101010101010101010101C3
:108DA00001010101010101010101010101010101B3
:108DB00001010101010101010101010101010101A3
:108DC0000101010101010101010101010101010193
:108DD0000101010101010101010101010101010183
:108DE0000101010101010101010101010101010173
:108DF0000101010101010101010101010101010163
:108E00000101010101010101010101010101010152
:108E10000101010101010101010101010101010142
:108E20000101010101010101010101010101010132
:108E30000101010101010101010101010101010122
:108E40000101010101010101010101010101010112
:108E50000101010101010101010101010101010102
:108E600001010101010101010101010101010101F2
:108E700001010101010101010101010101010101E2
:108E800001010101010101010101010101010101D2
:108E900001010101010101010101010101010101C2
:108EA00001010101010101010101010101010101B2
:108EB00001010101010101010101010101010101A2
:108EC0000101010101010101010101010101010192
:108ED0000101010101010101010101010101010182
:108EE0000101010101010101010101010101010172
:108EF0000101010101010101010101010101010162
:108F00000101010101010101010101010101010151
:108F10000101010101010101010101010101010141
:108F20000101010101010101020202020202020229
:108F30000202020202020202020202020202020211
:108F40000202020202020202020202020202020201
:108F500002020202020202020202020202020202F1
:108F600002020202020202020202020202020202E1
:109F20000202020202020202000000000000000021
:109F30000000000000000000000000000000000021
:109F40000000000000000000000000000000000011
:109F50000000000000000000000000000000000001
:109F600000000000000000000000000000000000F1
:10A720000000000000000000010101010101010121
:10A730000101010101010101010101010101010109
:10A7400001010101010101010101010101010101F9
:10A7500001010101010101010101010101010101E9
:10A7600001010101010101010101010101010101D9
:10AE2000010101010101010100000000000000001A
:10AE30000000000000000000000000000000000012
:10AE40000000000000000000000000000000000002
:10AE500000000000000000000000000000000000F2
:10AE600000000000000000000000000000000000E2
:10BD2000000000000000000001010101010101010B
:10BD300001010101010101010101010101010101F3
:10BD400001010101010101010101010101010101E3
:10BD500001010101010101010101010101010101D3
:10BD600001010101010101010101010101010101C3
:10C420000101010101010101000000000000000004
:10C4300000000000000000000000000000000000FC
:10C4400000000000000000000000000000000000EC
:10C4500000000000000000000000000000000000DC
:10C4600000000000000000000000000000000000CC
:10C820000000000000000000010101010101010100
:10C8300001010101010101010101010101010101E8
:10C8400001010101010101010101010101010101D8
:10C8500001010101010101010101010101010101C8
:10C8600001010101010101010101010101010101B8
:10C8700001010101010101010101010101010101A8
:10C880000101010101010101010101010101010198
:10C890000101010101010101010101010101010188
:10C8A0000101010101010101010101010101010178
:10C8B0000101010101010101010101010101010168
:10C8C0000101010101010101010101010101010158
:10C8D0000101010101010101010101010101010148
:10C8E0000101010101010101010101010101010138
:10C8F0000101010101010101010101010101010128
:10C900000101010101010101010101010101010117
:10C910000101010101010101010101010101010107
:10C9200001010101010101010101010101010101F7
:10C9300001010101010101010101010101010101E7
:10C9400001010101010101010101010101010101D7
:10C9500001010101010101010101010101010101C7
:10C9600001010101010101010101010101010101B7
:10C9700001010101010101010101010101010101A7
:10C980000101010101010101010101010101010197
:10C990000101010101010101010101010101010187
:10C9A0000101010101010101010101010101010177
:10C9B0000101010101010101010101010101010167
:10C9C0000101010101010101010101010101010157
:10C9D0000101010101010101010101010101010147
:10C9E0000101010101010101010101010101010137
:10C9F0000101010101010101010101010101010127
:10CA00000101010101010101010101010101010116
:10CA10000101010101010101010101010101010106
:10CA200001010101010101010202020202020202EE
:10CA300002020202020202020202020202020202D6
:10CA400002020202020202020202020202020202C6
:10CA500002020202020202020202020202020202B6
:10CA600002020202020202020202020202020202A6
:10DA200002020202020202020000000000000000E6
:10DA300000000000000000000000000000000000E6
:10DA400000000000000000000000000000000000D6
:10DA500000000000000000000000000000000000C6
:10DA600000000000000000000000000000000000B6
:10DF200000000000000000006D0000000000000084
:10DF300001010101010101010101010101010101D1
:10DF400001010101010101010101010101010101C1
:10DF500001010101010101010101010101010101B1
:10DF600001010101010101010101010101010101A1
:020000025000AC
:104C30006700000000000000010101010101010105
:104C40000101010101010101010101010101010154
:104C50000101010101010101010101010101010144
:104C60000101010101010101010101010101010134
:104C70000101010101010101010101010101010124
:105030000101010101010101000000000000000068
:105040000000000000000000000000000000000060
:105050000000000000000000000000000000000050
:105060000000000000000000000000000000000040
:105070000000000000000000000000000000000030
:106530000000000000000000010101010101010153
:10654000010101010101010101010101010101013B
:10655000010101010101010101010101010101012B
:10656000010101010101010101010101010101011B
:10657000010101010101010101010101010101010B
:10693000010101010101010100000000000000004F
:106940000000000000000000000000000000000047
:106950000000000000000000000000000000000037
:106960000000000000000000000000000000000027
:106970000000000000000000000000000000000017
:107030000000000000000000020202020202020240
:107040000202020202020202020202020202020220
:107050000202020202020202020202020202020210
:107060000202020202020202020202020202020200
:1070700002020202020202020202020202020202F0
:107830000202020202020202000000000000000038
:107840000000000000000000000000000000000038
:107850000000000000000000000000000000000028
:107860000000000000000000000000000000000018
:107870000000000000000000000000000000000008
:108130000000000000000000010101010101010137
:10814000010101010101010101010101010101011F
:10815000010101010101010101010101010101010F
:1081600001010101010101010101010101010101FF
:1081700001010101010101010101010101010101EF
:108530000101010101010101000000000000000033
:10854000000000000000000000000000000000002B
:10855000000000000000000000000000000000001B
:10856000000000000000000000000000000000000B
:1085700000000000000000000000000000000000FB
:109A3000000000000000000001010101010101011E
:109A40000101010101010101010101010101010106
:109A500001010101010101010101010101010101F6
:109A600001010101010101010101010101010101E6
:109A700001010101010101010101010101010101D6
:109E3000010101010101010100000000000000001A
:109E40000000000000000000000000000000000012
:109E50000000000000000000000000000000000002
:109E600000000000000000000000000000000000F2
:109E700000000000000000000000000000000000E2
:10A53000000000000000000002020202020202020B
:10A5400002020202020202020202020202020202EB
:10A5500002020202020202020202020202020202DB
:10A5600002020202020202020202020202020202CB
:10A5700002020202020202020202020202020202BB
:10AD30000202020202020202000000000000000003
:10AD40000000000000000000000000000000000003
:10AD500000000000000000000000000000000000F3
:10AD600000000000000000000000000000000000E3
:10AD700000000000000000000000000000000000D3
:10B3300000000000000000006900000000000000A4
:10B3400001010101010101010101010101010101ED
:10B3500001010101010101010101010101010101DD
:10B3600001010101010101010101010101010101CD
:10B3700001010101010101010101010101010101BD
:0200000260009C
:101C40006300000000000000010101010101010129
:101C50000101010101010101010101010101010174
:101C60000101010101010101010101010101010164
:101C70000101010101010101010101010101010154
:101C80000101010101010101010101010101010144
:102040000101010101010101000000000000000088
:102050000000000000000000000000000000000080
:102060000000000000000000000000000000000070
:102070000000000000000000000000000000000060
:102080000000000000000000000000000000000050
:103540000000000000000000010101010101010173
:10355000010101010101010101010101010101015B
:10356000010101010101010101010101010101014B
:10357000010101010101010101010101010101013B
:10358000010101010101010101010101010101012B
:10394000010101010101010100000000000000006F
:103950000000000000000000000000000000000067
:103960000000000000000000000000000000000057
:103970000000000000000000000000000000000047
:103980000000000000000000000000000000000037
:103D4000000000000000000001010101010101016B
:103D50000101010101010101010101010101010153
:103D60000101010101010101010101010101010143
:103D70000101010101010101010101010101010133
:103D80000101010101010101010101010101010123
:103D90000101010101010101010101010101010113
:103DA0000101010101010101010101010101010103
:103DB00001010101010101010101010101010101F3
:103DC00001010101010101010101010101010101E3
:103DD00001010101010101010101010101010101D3
:103DE00001010101010101010101010101010101C3
:103DF00001010101010101010101010101010101B3
:103E000001010101010101010101010101010101A2
:103E10000101010101010101010101010101010192
:103E20000101010101010101010101010101010182
:103E30000101010101010101010101010101010172
:103E40000101010101010101010101010101010162
:103E50000101010101010101010101010101010152
:103E60000101010101010101010101010101010142
:103E70000101010101010101010101010101010132
:103E80000101010101010101010101010101010122
:103E90000101010101010101010101010101010112
:103EA0000101010101010101010101010101010102
:103EB00001010101010101010101010101010101F2
:103EC00001010101010101010101010101010101E2
:103ED00001010101010101010101010101010101D2
:103EE00001010101010101010101010101010101C2
:103EF00001010101010101010101010101010101B2
:103F000001010101010101010101010101010101A1
:103F10000101010101010101010101010101010191
:103F20000101010101010101010101010101010181
:103F30000101010101010101010101010101010171
:103F40000101010101010101020202020202020259
:103F50000202020202020202020202020202020241
:103F60000202020202020202020202020202020231
:103F70000202020202020202020202020202020221
:103F80000202020202020202020202020202020211
:104940000202020202020202000000000000000057
:104950000000000000000000000000000000000057
:104960000000000000000000000000000000000047
:104970000000000000000000000000000000000037
:104980000000000000000000000000000000000027
:104F40000000000000000000010101010101010159
:104F50000101010101010101010101010101010141
:104F60000101010101010101010101010101010131
:104F70000101010101010101010101010101010121
:104F80000101010101010101010101010101010111
:105340000101010101010101000000000000000055
:10535000000000000000000000000000000000004D
:10536000000000000000000000000000000000003D
:10537000000000000000000000000000000000002D
:10538000000000000000000000000000000000001D
:106840000000000000000000010101010101010140
:106850000101010101010101010101010101010128
:106860000101010101010101010101010101010118
:106870000101010101010101010101010101010108
:1068800001010101010101010101010101010101F8
:106C4000010101010101010100000000000000003C
:106C50000000000000000000000000000000000034
:106C60000000000000000000000000000000000024
:106C70000000000000000000000000000000000014
:106C80000000000000000000000000000000000004
:107040000000000000000000010101010101010138
:107050000101010101010101010101010101010120
:107060000101010101010101010101010101010110
:107070000101010101010101010101010101010100
:1070800001010101010101010101010101010101F0
:1070900001010101010101010101010101010101E0
:1070A00001010101010101010101010101010101D0
:1070B00001010101010101010101010101010101C0
:1070C00001010101010101010101010101010101B0
:1070D00001010101010101010101010101010101A0
:1070E0000101010101010101010101010101010190
:1070F0000101010101010101010101010101010180
:10710000010101010101010101010101010101016F
:10711000010101010101010101010101010101015F
:10712000010101010101010101010101010101014F
:10713000010101010101010101010101010101013F
:10714000010101010101010101010101010101012F
:10715000010101010101010101010101010101011F
:10716000010101010101010101010101010101010F
:1071700001010101010101010101010101010101FF
:1071800001010101010101010101010101010101EF
:1071900001010101010101010101010101010101DF
:1071A00001010101010101010101010101010101CF
:1071B00001010101010101010101010101010101BF
:1071C00001010101010101010101010101010101AF
:1071D000010101010101010101010101010101019F
:1071E000010101010101010101010101010101018F
:1071F000010101010101010101010101010101017F
:10720000010101010101010101010101010101016E
:10721000010101010101010101010101010101015E
:10722000010101010101010101010101010101014E
:10723000010101010101010101010101010101013E
:107240000101010101010101020202020202020226
:10725000020202020202020202020202020202020E
:1072600002020202020202020202020202020202FE
:1072700002020202020202020202020202020202EE
:1072800002020202020202020202020202020202DE
:107C40000202020202020202000000000000000024
:107C50000000000000000000000000000000000024
:107C60000000000000000000000000000000000014
:107C70000000000000000000000000000000000004
:107C800000000000000000000000000000000000F4
:107F400000000000000000005F00000000000000D2
:107F50000101010101010101010101010101010111
:107F60000101010101010101010101010101010101
:107F700001010101010101010101010101010101F1
:107F800001010101010101010101010101010101E1
:10DE500088DE06000000000090FE060000000000C2
:10DE60009818070000000000A02F07000000000025
:10DE7000A848070000000000B05D07000000000097
:10DE8000B870070000000000C0800700000000001C
:10DE9000C890070000000000D0A0070000000000AC
:10DEA000D8AF070000000000E0BA07000000000043
:10DEB000E8C3070000000000F0D0070000000000E9
:10DEC000F8DD070000000000200000000000000056
:10DED0000000000000000000000000000000000042
:10DEE0000000000000000000000000000000000032
:10DEF0000000000000000000000000000000000022
:10DF00000000000000000000000000000000000011
:10DF10000000000000000000000000000000000001
:10DF200000000000000000000000000000000000F1
:10DF300000000000000000000000000000000000E1
:10DF400000000000000000000000000000000000D1
:10DF500000000000000000000000000000000000C1
:10DF600000000000000000000000000000000000B1
:10DF700000000000000000000000000000000000A1
:10DF80000000000000000000000000000000000091
:10DF90000000000000000000000000000000000081
:10DFA0000000000000000000000000000000000071
:10DFB0000000000000000000000000000000000061
:10DFC0000100000000000000000000000000000050
:10DFD0000000000000000000000000000000000041
:10DFE0000000000000000000000000000000000031
:10DFF0000000000000000000000000000000000021
:10E000000000000000000000000000000000000010
:10E010000000000000000000000000000000000000
:10E0200000000000000000000000000000000000F0
:10E0300000000000000000000000000000000000E0
:10E0400000000000000000000000000000000000D0
:10E0500000000000000000000000000000000000C0
:10E0600000000000000000000000000000000000B0
:10E0700000000000000000000000000000000000A0
:10E080000000000000000000000000000000000090
:10E090000000000000000000000000000000000080
:10E0A0000000000000000000000000000000000070
:10E0B0000000000000000000000000000000000060
:10E0C000020000000000000000000000000000004E
:10E0D000000000000000000000000000000000013F
:10E0E0000000000000000000000000000000000030
:10E0F0000000000000000000000000000000000020
:10E10000000000000000000000000000000000000F
:10E1100000000000000000000000000000000000FF
:10E1200000000000000000000000000000000000EF
:10E1300000000000000000000000000000000000DF
:10E1400000000000000000000000000000000000CF
:10E1500000000000000000000000000000000000BF
:10E1600000000000000000000000000000000000AF
:10E17000000000000000000000000000000000009F
:10E18000000000000000000000000000000000008F
:10E19000000000000000000000000000000000007F
:10E1A000000000000000000000000000000000006F
:10E1B000000000000000000000000000000000005F
:10E1C000020000000000000000000000000000004D
:10E1D000000000000000000000000000000000013E
:10E1E000000000000000000000000000000000002F
:10E1F000000000000000000000000000000000001F
:10E20000000000000000000000000000000000000E
:10E2100000000000000000000000000000000000FE
:10E2200000000000000000000000000000000000EE
:10E2300000000000000000000000000000000000DE
:10E2400000000000000000000000000000000000CE
:10E2500000000000000000000000000000000000BE
:10E2600000000000000000000000000000000000AE
:10E27000000000000000000000000000000000009E
:10E28000000000000000000000000000000000008E
:10E29000000000000000000000000000000000007E
:10E2A000000000000000000000000000000000006E
:10E2B000000000000000000000000000000000005E
:10E2C000020000000000000000000000000000004C
:10E2D000000000000000000000000000000000013D
:10E2E000000000000000000000000000000000002E
:10E2F000000000000000000000000000000000001E
:10E30000000000000000000000000000000000000D
:10E3100000000000000000000000000000000000FD
:10E3200000000000000000000000000000000000ED
:10E3300000000000000000000000000000000000DD
:10E3400000000000000000000000000000000000CD
:10E3500000000000000000000000000000000000BD
:10E3600000000000000000000000000000000000AD
:10E37000000000000000000000000000000000009D
:10E38000000000000000000000000000000000008D
:10E39000000000000000000000000000000000007D
:10E3A000000000000000000000000000000000006D
:10E3B000000000000000000000000000000000005D
:10E3C0000202010000000000000000000000000048
:10E3D000000000000000000000000000000000013C
:10E3E000000000000000000000000000000000002D
:10E3F000000000000000000000000000000000001D
:10E40000000000000000000000000000000000000C
:10E4100000000000000000000000000000000000FC
:10E4200000000000000000000000000000000000EC
:10E4300000000000000000000000000000000000DC
:10E4400000000000000000000000000000000000CC
:10E4500000000000000000000000000000000000BC
:10E4600000000000000000000000000000000000AC
:10E47000000000000000000000000000000000009C
:10E48000000000000000000000000000000000008C
:10E49000000000000000000000000000000000007C
:10E4A000000000000000000000000000000000006C
:10E4B000000000000000000000000000000000005C
:10E4C0000202020000000000000000000000000046
:10E4D000000000000000000000000000000001013A
:10E4E000000000000000000000000000000000002C
:10E4F000000000000000000000000000000000001C
:10E50000000000000000000000000000000000000B
:10E5100000000000000000000000000000000000FB
:10E5200000000000000000000000000000000000EB
:10E5300000000000000000000000000000000000DB
:10E5400000000000000000000000000000000000CB
:10E5500000000000000000000000000000000000BB
:10E5600000000000000000000000000000000000AB
:10E57000000000000000000000000000000000009B
:10E58000000000000000000000000000000000008B
:10E59000000000000000000000000000000000007B
:10E5A000000000000000000000000000000000006B
:10E5B000000000000000000000000000000000005B
:10E5C0000202020000000000000000000000000045
:10E5D0000000000000000000000000000001010138
:10E5E000000000000000000000000000000000002B
:10E5F000000000000000000000000000000000001B
:10E60000000000000000000000000000000000000A
:10E6100000000000000000000000000000000000FA
:10E6200000000000000000000000000000000000EA
:10E6300000000000000000000000000000000000DA
:10E6400000000000000000000000000000000000CA
:10E6500000000000000000000000000000000000BA
:10E6600000000000000000000000000000000000AA
:10E67000000000000000000000000000000000009A
:10E68000000000000000000000000000000000008A
:10E69000000000000000000000000000000000007A
:10E6A000000000000000000000000000000000006A
:10E6B000000000000000000000000000000000005A
:10E6C0000202020100000000000000000000000043
:10E6D0000000000000000000000000000001010137
:10E6E000000000000000000000000000000000002A
:10E6F000000000000000000000000000000000001A
:10E700000000000000000000000000000000000009
:10E7100000000000000000000000000000000000F9
:10E7200000000000000000000000000000000000E9
:10E7300000000000000000000000000000000000D9
:10E7400000000000000000000000000000000000C9
:10E7500000000000000000000000000000000000B9
:10E7600000000000000000000000000000000000A9
:10E770000000000000000000000000000000000099
:10E780000000000000000000000000000000000089
:10E790000000000000000000000000000000000079
:10E7A0000000000000000000000000000000000069
:10E7B0000000000000000000000000000000000059
:10E7C0000202020201000000000000000000000040
:10E7D0000000000000000000000000000101010135
:10E7E0000000000000000000000000000000000029
:10E7F0000000000000000000000000000000000019
:10E800000000000000000000000000000000000008
:10E8100000000000000000000000000000000000F8
:10E8200000000000000000000000000000000000E8
:10E8300000000000000000000000000000000000D8
:10E8400000000000000000000000000000000000C8
:10E8500000000000000000000000000000000000B8
:10E8600000000000000000000000000000000000A8
:10E870000000000000000000000000000000000098
:10E880000000000000000000000000000000000088
:10E890000000000000000000000000000000000078
:10E8A0000000000000000000000000000000000068
:10E8B0000000000000000000000000000000000058
:10E8C000020202020201000000000000000000003D
:10E8D0000000000000000000000000010101010133
:10E8E0000000000000000000000000000000000028
:10E8F0000000000000000000000000000000000018
:10E900000000000000000000000000000000000007
:10E9100000000000000000000000000000000000F7
:10E9200000000000000000000000000000000000E7
:10E9300000000000000000000000000000000000D7
:10E9400000000000000000000000000000000000C7
:10E9500000000000000000000000000000000000B7
:10E9600000000000000000000000000000000000A7
:10E970000000000000000000000000000000000097
:10E980000000000000000000000000000000000087
:10E990000000000000000000000000000000000077
:10E9A0000000000000000000000000000000000067
:10E9B0000000000000000000000000000000000057
:10E9C000020202020201000000000000000000003C
:10E9D0000000000000000000000000010101010132
:10E9E0000000000000000000000000000000000027
:10E9F0000000000000000000000000000000000017
:10EA00000000000000000000000000000000000006
:10EA100000000000000000000000000000000000F6
:10EA200000000000000000000000000000000000E6
:10EA300000000000000000000000000000000000D6
:10EA400000000000000000000000000000000000C6
:10EA500000000000000000000000000000000000B6
:10EA600000000000000000000000000000000000A6
:10EA70000000000000000000000000000000000096
:10EA80000000000000000000000000000000000086
:10EA90000000000000000000000000000000000076
:10EAA0000000000000000000000000000000000066
:10EAB0000000000000000000000000000000000056
:10EAC0000202020202020101000000000000000038
:10EAD0000000000000000000000001010101010130
:10EAE0000000000000000000000000000000000026
:10EAF0000000000000000000000000000000000016
:10EB00000000000000000000000000000000000005
:10EB100000000000000000000000000000000000F5
:10EB200000000000000000000000000000000000E5
:10EB300000000000000000000000000000000000D5
:10EB400000000000000000000000000000000000C5
:10EB500000000000000000000000000000000000B5
:10EB600000000000000000000000000000000000A5
:10EB70000000000000000000000000000000000095
:10EB80000000000000000000000000000000000085
:10EB90000000000000000000000000000000000075
:10EBA0000000000000000000000000000000000065
:10EBB0000000000000000000000000000000000055
:10EBC0000202020202020101000000000000000037
:10EBD000000000000000000000010101010101012E
:10EBE0000000000000000000000000000000000025
:10EBF0000000000000000000000000000000000015
:10EC00000000000000000000000000000000000004
:10EC100000000000000000000000000000000000F4
:10EC200000000000000000000000000000000000E4
:10EC300000000000000000000000000000000000D4
:10EC400000000000000000000000000000000000C4
:10EC500000000000000000000000000000000000B4
:10EC600000000000000000000000000000000000A4
:10EC70000000000000000000000000000000000094
:10EC80000000000000000000000000000000000084
:10EC90000000000000000000000000000000000074
:10ECA0000000000000000000000000000000000064
:10ECB0000000000000000000000000000000000054
:10ECC0000202020202020201000000000000000035
:10ECD000000000000000000000010101010101012D
:10ECE0000000000000000000000000000000000024
:10ECF0000000000000000000000000000000000014
:10ED00000000000000000000000000000000000003
:10ED100000000000000000000000000000000000F3
:10ED200000000000000000000000000000000000E3
:10ED300000000000000000000000000000000000D3
:10ED400000000000000000000000000000000000C3
:10ED500000000000000000000000000000000000B3
:10ED600000000000000000000000000000000000A3
:10ED70000000000000000000000000000000000093
:10ED80000000000000000000000000000000000083
:10ED90000000000000000000000000000000000073
:10EDA0000000000000000000000000000000000063
:10EDB0000000000000000000000000000000000053
:10EDC0000202020202020202000000000000000033
:10EDD000000000000000000000010101010101012C
:10EDE0000000000000000000000000000000000023
:10EDF0000000000000000000000000000000000013
:10EE00000000000000000000000000000000000002
:10EE100000000000000000000000000000000000F2
:10EE200000000000000000000000000000000000E2
:10EE300000000000000000000000000000000000D2
:10EE400000000000000000000000000000000000C2
:10EE500000000000000000000000000000000000B2
:10EE600000000000000000000000000000000000A2
:10EE70000000000000000000000000000000000092
:10EE80000000000000000000000000000000000082
:10EE90000000000000000000000000000000000072
:10EEA0000000000000000000000000000000000062
:10EEB0000000000000000000000000000000000052
:10EEC0000202020202020202000000000000000032
:10EED0000000000000000001010101010101010129
:10EEE0000000000000000000000000000000000022
:10EEF0000000000000000000000000000000000012
:10EF00000000000000000000000000000000000001
:10EF100000000000000000000000000000000000F1
:10EF200000000000000000000000000000000000E1
:10EF300000000000000000000000000000000000D1
:10EF400000000000000000000000000000000000C1
:10EF500000000000000000000000000000000000B1
:10EF600000000000000000000000000000000000A1
:10EF70000000000000000000000000000000000091
:10EF80000000000000000000000000000000000081
:10EF90000000000000000000000000000000000071
:10EFA0000000000000000000000000000000000061
:10EFB0000000000000000000000000000000000051
:10EFC0000202020202020202000100000000000030
:10EFD0000000000000000001010101010101010128
:10EFE0000000000000000000000000000000000021
:10EFF0000000000000000000000000000000000011
:10F000000000000000000000000000000000000000
:10F0100000000000000000000000000000000000F0
:10F0200000000000000000000000000000000000E0
:10F0300000000000000000000000000000000000D0
:10F0400000000000000000000000000000000000C0
:10F0500000000000000000000000000000000000B0
:10F0600000000000000000000000000000000000A0
:10F070000000000000000000000000000000000090
:10F080000000000000000000000000000000000080
:10F090000000000000000000000000000000000070
:10F0A0000000000000000000000000000000000060
:10F0B0000000000000000000000000000000000050
:10F0C000020202020202020202010100000000002C
:10F0D0000000000000000101010101010101010126
:10F0E0000000000000000000000000000000000020
:10F0F0000000000000000000000000000000000010
:10F1000000000000000000000000000000000000FF
:10F1100000000000000000000000000000000000EF
:10F1200000000000000000000000000000000000DF
:10F1300000000000000000000000000000000000CF
:10F1400000000000000000000000000000000000BF
:10F1500000000000000000000000000000000000AF
:10F16000000000000000000000000000000000009F
:10F17000000000000000000000000000000000008F
:10F18000000000000000000000000000000000007F
:10F19000000000000000000000000000000000006F
:10F1A000000000000000000000000000000000005F
:10F1B000000000000000000000000000000000004F
:10F1C000020202020202020202020100000000002A
:10F1D0000000000000000101010101010101010125
:10F1E000000000000000000000000000000000001F
:10F1F000000000000000000000000000000000000F
:10F2000000000000000000000000000000000000FE
:10F2100000000000000000000000000000000000EE
:10F2200000000000000000000000000000000000DE
:10F2300000000000000000000000000000000000CE
:10F2400000000000000000000000000000000000BE
:10F2500000000000000000000000000000000000AE
:10F26000000000000000000000000000000000009E
:10F27000000000000000000000000000000000008E
:10F28000000000000000000000000000000000007E
:10F29000000000000000000000000000000000006E
:10F2A000000000000000000000000000000000005E
:10F2B000000000000000000000000000000000004E
:10F2C0000202020202020202020202010000000027
:10F2D0000000000000010101010101010101010123
:10F2E000000000000000000000000000000000001E
:10F2F000000000000000000000000000000000000E
:10F3000000000000000000000000000000000000FD
:10F3100000000000000000000000000000000000ED
:10F3200000000000000000000000000000000000DD
:10F3300000000000000000000000000000000000CD
:10F3400000000000000000000000000000000000BD
:10F3500000000000000000000000000000000000AD
:10F36000000000000000000000000000000000009D
:10F37000000000000000000000000000000000008D
:10F38000000000000000000000000000000000007D
:10F39000000000000000000000000000000000006D
:10F3A000000000000000000000000000000000005D
:10F3B000000000000000000000000000000000004D
:10F3C0000202020202020202020202010000000026
:10F3D0000000000000010101010101010101010122
:10F3E000000000000000000000000000000000001D
:10F3F000000000000000000000000000000000000D
:10F4000000000000000000000000000000000000FC
:10F4100000000000000000000000000000000000EC
:10F4200000000000000000000000000000000000DC
:10F4300000000000000000000000000000000000CC
:10F4400000000000000000000000000000000000BC
:10F4500000000000000000000000000000000000AC
:10F46000000000000000000000000000000000009C
:10F47000000000000000000000000000000000008C
:10F48000000000000000000000000000000000007C
:10F49000000000000000000000000000000000006C
:10F4A000000000000000000000000000000000005C
:10F4B000000000000000000000000000000000004C
:10F4C0000202020202020202020202020000000024
:10F4D0000000000000010101010101010101010121
:10F4E000000000000000000000000000000000001C
:10F4F000000000000000000000000000000000000C
:10F5000000000000000000000000000000000000FB
:10F5100000000000000000000000000000000000EB
:10F5200000000000000000000000000000000000DB
:10F5300000000000000000000000000000000000CB
:10F5400000000000000000000000000000000000BB
:10F5500000000000000000000000000000000000AB
:10F56000000000000000000000000000000000009B
:10F57000000000000000000000000000000000008B
:10F58000000000000000000000000000000000007B
:10F59000000000000000000000000000000000006B
:10F5A000000000000000000000000000000000005B
:10F5B000000000000000000000000000000000004B
:10F5C0000202020202020202020202020101000021
:10F5D000000000000101010101010101010101011F
:10F5E000000000000000000000000000000000001B
:10F5F000000000000000000000000000000000000B
:10F6000000000000000000000000000000000000FA
:10F6100000000000000000000000000000000000EA
:10F6200000000000000000000000000000000000DA
:10F6300000000000000000000000000000000000CA
:10F6400000000000000000000000000000000000BA
:10F6500000000000000000000000000000000000AA
:10F66000000000000000000000000000000000009A
:10F67000000000000000000000000000000000008A
:10F68000000000000000000000000000000000007A
:10F69000000000000000000000000000000000006A
:10F6A000000000000000000000000000000000005A
:10F6B000000000000000000000000000000000004A
:10F6C000020202020202020202020202020100001F
:10F6D000000000010101010101010101010101011D
:10F6E000000000000000000000000000000000001A
:10F6F000000000000000000000000000000000000A
:10F7000000000000000000000000000000000000F9
:10F7100000000000000000000000000000000000E9
:10F7200000000000000000000000000000000000D9
:10F7300000000000000000000000000000000000C9
:10F7400000000000000000000000000000000000B9
:10F7500000000000000000000000000000000000A9
:10F760000000000000000000000000000000000099
:10F770000000000000000000000000000000000089
:10F780000000000000000000000000000000000079
:10F790000000000000000000000000000000000069
:10F7A0000000000000000000000000000000000059
:10F7B0000000000000000000000000000000000049
:10F7C000020202020202020202020202020200001D
:10F7D000000000010101010101010101010101011C
:10F7E0000000000000000000000000000000000019
:10F7F0000000000000000000000000000000000009
:10F8000000000000000000000000000000000000F8
:10F8100000000000000000000000000000000000E8
:10F8200000000000000000000000000000000000D8
:10F8300000000000000000000000000000000000C8
:10F8400000000000000000000000000000000000B8
:10F8500000000000000000000000000000000000A8
:10F860000000000000000000000000000000000098
:10F870000000000000000000000000000000000088
:10F880000000000000000000000000000000000078
:10F890000000000000000000000000000000000068
:10F8A0000000000000000000000000000000000058
:10F8B0000000000000000000000000000000000048
:10F8C000020202020202020202020202020201001B
:10F8D000000000010101010101010101010101011B
:10F8E0000000000000000000000000000000000018
:10F8F0000000000000000000000000000000000008
:10F9000000000000000000000000000000000000F7
:10F9100000000000000000000000000000000000E7
:10F9200000000000000000000000000000000000D7
:10F9300000000000000000000000000000000000C7
:10F9400000000000000000000000000000000000B7
:10F9500000000000000000000000000000000000A7
:10F960000000000000000000000000000000000097
:10F970000000000000000000000000000000000087
:10F980000000000000000000000000000000000077
:10F990000000000000000000000000000000000067
:10F9A0000000000000000000000000000000000057
:10F9B0000000000000000000000000000000000047
:10F9C0000202020202020202020202020202020019
:10F9D0000000010101010101010101010101010119
:10F9E0000000000000000000000000000000000017
:10F9F0000000000000000000000000000000000007
:10FA000000000000000000000000000000000000F6
:10FA100000000000000000000000000000000000E6
:10FA200000000000000000000000000000000000D6
:10FA300000000000000000000000000000000000C6
:10FA400000000000000000000000000000000000B6
:10FA500000000000000000000000000000000000A6
:10FA60000000000000000000000000000000000096
:10FA70000000000000000000000000000000000086
:10FA80000000000000000000000000000000000076
:10FA90000000000000000000000000000000000066
:10FAA0000000000000000000000000000000000056
:10FAB0000000000000000000000000000000000046
:10FAC0000202020202020202020202020202020018
:10FAD0000000010101010101010101010101010118
:10FAE0000000000000000000000000000000000016
:10FAF0000000000000000000000000000000000006
:10FB000000000000000000000000000000000000F5
:10FB100000000000000000000000000000000000E5
:10FB200000000000000000000000000000000000D5
:10FB300000000000000000000000000000000000C5
:10FB400000000000000000000000000000000000B5
:10FB500000000000000000000000000000000000A5
:10FB60000000000000000000000000000000000095
:10FB70000000000000000000000000000000000085
:10FB80000000000000000000000000000000000075
:10FB90000000000000000000000000000000000065
:10FBA0000000000000000000000000000000000055
:10FBB0000000000000000000000000000000000045
:10FBC0000202020202020202020202020202020017
:10FBD0000001010101010101010101010101010116
:10FBE0000000000000000000000000000000000015
:10FBF0000000000000000000000000000000000005
:10FC000000000000000000000000000000000000F4
:10FC100000000000000000000000000000000000E4
:10FC200000000000000000000000000000000000D4
:10FC300000000000000000000000000000000000C4
:10FC400000000000000000000000000000000000B4
:10FC500000000000000000000000000000000000A4
:10FC60000000000000000000000000000000000094
:10FC70000000000000000000000000000000000084
:10FC80000000000000000000000000000000000074
:10FC90000000000000000000000000000000000064
:10FCA0000000000000000000000000000000000054
:10FCB0000000000000000000000000000000000044
:10FCC0000202020202020202020202020202020016
:10FCD0000001010101010101010101010101010115
:10FCE0000000000000000000000000000000000014
:10FCF0000000000000000000000000000000000004
:10FD000000000000000000000000000000000000F3
:10FD100000000000000000000000000000000000E3
:10FD200000000000000000000000000000000000D3
:10FD300000000000000000000000000000000000C3
:10FD400000000000000000000000000000000000B3
:10FD500000000000000000000000000000000000A3
:10FD60000000000000000000000000000000000093
:10FD70000000000000000000000000000000000083
:10FD80000000000000000000000000000000000073
:10FD90000000000000000000000000000000000063
:10FDA0000000000000000000000000000000000053
:10FDB0000000000000000000000000000000000043
:10FDC0000202020202020202020202020202020015
:10FDD0000000000000000000000000000000000023
:10FDE0000000000000000000000000000000000013
:10FDF0000000000000000000000000000000000003
:10FE000000000000000000000000000000000000F2
:10FE100000000000000000000000000000000000E2
:10FE200000000000000000000000000000000000D2
:10FE300000000000000000000000000000000000C2
:10FE400000000000000000000000000000000000B2
:10FE500000000000000000000000000000000000A2
:10FE60000000000000000000000000000000000092
:10FE70000000000000000000000000000000000082
:10FE80000000000000000000000000000000000072
:10FE90000000000000000000000000000000000062
:10FEA0000000000000000000000000000000000052
:10FEB0000000000000000000000000000000000042
:10FEC0000000000000000000000000000000000032
:10FED0001A00000000000000000000000000000008
:10FEE0000000000000000001000000000000000011
:10FEF0000000000000000000000000000000000002
:10FF000000000000000000000000000000000000F1
:10FF100000000000000000000000000000000000E1
:10FF200000000000000000000000000000000000D1
:10FF300000000000000000000000000000000000C1
:10FF400000000000000000000000000000000000B1
:10FF500000000000000000000000000000000000A1
:10FF60000000000000000000000000000000000091
:10FF70000000000000000000000000000000000081
:10FF80000000000000000000000000000000000071
:10FF90000000000000000000000000000000000061
:10FFA0000000000000000000000000000000000051
:10FFB0000000000000000000000000000000000041
:10FFC000000000000000000002000000000000002F
:10FFD0000000000000000000000000000000000021
:10FFE0000000000000000001000000000000000010
:10FFF0000000000000000000000000000000000001
:0200000270008C
:1000000000000000000000000000000000000000F0
:1000100000000000000000000000000000000000E0
:1000200000000000000000000000000000000000D0
:1000300000000000000000000000000000000000C0
:1000400000000000000000000000000000000000B0
:1000500000000000000000000000000000000000A0
:100060000000000000000000000000000000000090
:100070000000000000000000000000000000000080
:100080000000000000000000000000000000000070
:100090000000000000000000000000000000000060
:1000A0000000000000000000000000000000000050
:1000B0000000000000000000000000000000000040
:1000C000000000000000000002000000000000002E
:1000D0000000000000000000000000000000000020
:1000E000000000000000010100000000000000000E
:1000F0000000000000000000000000000000000000
:1001000000000000000000000000000000000000EF
:1001100000000000000000000000000000000000DF
:1001200000000000000000000000000000000000CF
:1001300000000000000000000000000000000000BF
:1001400000000000000000000000000000000000AF
:10015000000000000000000000000000000000009F
:10016000000000000000000000000000000000008F
:10017000000000000000000000000000000000007F
:10018000000000000000000000000000000000006F
:10019000000000000000000000000000000000005F
:1001A000000000000000000000000000000000004F
:1001B000000000000000000000000000000000003F
:1001C000000000000000000002020000000000002B
:1001D000000000000000000000000000000000001F
:1001E000000000000000010100000000000000000D
:1001F00000000000000000000000000000000000FF
:1002000000000000000000000000000000000000EE
:1002100000000000000000000000000000000000DE
:1002200000000000000000000000000000000000CE
:1002300000000000000000000000000000000000BE
:1002400000000000000000000000000000000000AE
:10025000000000000000000000000000000000009E
:10026000000000000000000000000000000000008E
:10027000000000000000000000000000000000007E
:10028000000000000000000000000000000000006E
:10029000000000000000000000000000000000005E
:1002A000000000000000000000000000000000004E
:1002B000000000000000000000000000000000003E
:1002C0000000000000000000020201010000000028
:1002D000000000000000000000000000000000001E
:1002E000000000000001010100000000000000000B
:1002F00000000000000000000000000000000000FE
:1003000000000000000000000000000000000000ED
:1003100000000000000000000000000000000000DD
:1003200000000000000000000000000000000000CD
:1003300000000000000000000000000000000000BD
:1003400000000000000000000000000000000000AD
:10035000000000000000000000000000000000009D
:10036000000000000000000000000000000000008D
:10037000000000000000000000000000000000007D
:10038000000000000000000000000000000000006D
:10039000000000000000000000000000000000005D
:1003A000000000000000000000000000000000004D
:1003B000000000000000000000000000000000003D
:1003C0000000000000000000020202010000000026
:1003D000000000000000000000000000000000001D
:1003E000000000000001010100000000000000000A
:1003F00000000000000000000000000000000000FD
:1004000000000000000000000000000000000000EC
:1004100000000000000000000000000000000000DC
:1004200000000000000000000000000000000000CC
:1004300000000000000000000000000000000000BC
:1004400000000000000000000000000000000000AC
:10045000000000000000000000000000000000009C
:10046000000000000000000000000000000000008C
:10047000000000000000000000000000000000007C
:10048000000000000000000000000000000000006C
:10049000000000000000000000000000000000005C
